:020000040800F2
:10000000A8080020C9010008D1010008D301000898
:10001000D5010008D7010008D90100080000000040
:10002000000000000000000000000000DB010008EC
:10003000DD01000800000000DF0100085D67000826
:10004000E3010008E3010008E3010008E301000800
:10005000E3010008E3010008E3010008E3010008F0
:10006000E3010008E3010008E3010008E3010008E0
:10007000E3010008E3010008E3010008E3010008D0
:10008000E3010008E3010008E3010008E3010008C0
:10009000E3010008E3010008E3010008E3010008B0
:1000A000E3010008E3010008E3010008E3010008A0
:1000B000E3010008A96C0008E3010008E30100085F
:1000C000E3010008E3010008E3010008E301000880
:1000D000E3010008E3010008D1690008E30100081A
:1000E000E3010008E3010008E301000800F002F862
:1000F00000F05AF80AA090E8000C82448344AAF168
:100100000107DA4501D100F04FF8AFF2090EBAE865
:100110000F0013F0010F18BFFB1A43F0010318473B
:10012000287E0000487E00000A444FF0000C10F8C2
:10013000013B13F0070408BF10F8014B1D1108BF65
:1001400010F8015B641E05D010F8016B641E01F805
:10015000016BF9D113F0080F1EBF10F8014BAD1C55
:100160000C1B09D16D1E58BF01F801CBFAD505E073
:1001700014F8016B01F8016B6D1EF9D59142D6D3CD
:10018000704700000023002400250026103A28BFF5
:1001900078C1FBD8520728BF30C148BF0B607047F9
:1001A0001FB51FBD10B510BD06F0B4FD1146FFF719
:1001B000F7FF00F05BF806F0D2FD03B4FFF7F2FFA3
:1001C00003BC06F0D5FD00000948804709480047F8
:1001D000FEE7FEE7FEE7FEE7FEE7FEE7FEE7FEE7F7
:1001E000FEE7FEE704480549054A064B7047000054
:1001F00093030008ED000008A8020020A8080020D2
:10020000A8040020A804002008B50120ADF80000D3
:1002100010208DF8030003208DF802006946224863
:1002200000F0A4FE0121204801F06DF84FF47A702F
:1002300006F09DFA01211C4801F090F84FF47A7005
:1002400006F095FA08BD08B54FF48070ADF80000CF
:1002500018208DF8030003208DF80200694613482A
:1002600000F084FE042000F0A5FD08BD012104205B
:1002700000F0DDFC0121082000F0D9FC0121102054
:1002800000F0D5FC0121084600F0D1FC4FF4E060FD
:1002900000F000F906F02EFA054806F09BFC00BFBE
:1002A000FEE700BFFEE70000000C0140000801402F
:1002B000640100200CB50020019000906C4800689B
:1002C00040F480306A49086000BF6948006800F463
:1002D000003000900198401C0190009818B90198D6
:1002E000B0F5A06FF1D16248006800F4003010B1A1
:1002F0000120009001E0002000900098012843D1E7
:100300005C48006840F010005A49086008460068E0
:1003100020F0030008600846006840F00200086012
:10032000534840685249486008464068486008465B
:10033000406840F4806048600846406820F47C10C3
:1003400048600846406840F4E81048600846006885
:1003500040F08070086000BF4548006800F0007001
:100360000028F9D04248406820F003004049486026
:100370000846406840F00200486000BF3C484068C2
:1003800000F00C000828F9D10CBD10B5FFF792FF62
:1003900010BD10B53648006840F0010034490860CF
:1003A00008464068344908403149486008460068BA
:1003B000324908402E4908600846006820F4802031
:1003C00008600846406820F4FE0048604FF41F00B3
:1003D0008860FFF7DAFF4FF000602949086010BD20
:1003E00010B5002100200022214B5B6803F00C01B6
:1003F00021B1042906D0082928D107E0214B224C3D
:10040000236027E01F4B204C236023E0184B5B68E0
:1004100003F47010164B5B6803F48032022303EB85
:10042000904022B9194B4343174C23600DE0104B09
:100430005B6803F4003323B1144B4343124C236035
:1004400003E0104B4343104C236003E00D4B0E4C74
:10045000236000BF00BF064B5B68C3F303130C4C63
:10046000E15C094B1B68CB40074C236010BD0000CA
:1004700000100240002002400000FFF8FFFFF6FEDF
:1004800008ED00E000127A000000002000093D00A5
:100490000400002010B50446B4F5E06F0BD0B4F5AD
:1004A000C06F08D0B4F5A06F05D0B4F5806F02D04E
:1004B000B4F5407F00D103E063215DA0FFF7F1FEBA
:1004C0005F4820435F49086010BD2DE9F0410446B4
:1004D000002500270F26E07810B1E078012800D130
:1004E00003E0752152A0FFF7DCFE6078102800DAE7
:1004F00003E076214EA0FFF7D4FEA078102800DAA2
:1005000003E077214AA0FFF7CCFEE07800B34D4826
:10051000006800F4E060C0F5E060050AC5F104077A
:10052000EE40607800FA07F5A078304005432D01D1
:10053000454822788554207800F01F01012088402A
:1005400021784911890001F1E021C1F8000109E099
:10055000207800F01F01012088403C492278521188
:1005600041F82200BDE8F08170B504460D46B4F1B3
:10057000005F02D0B4F1006F00D103E09F212CA0F6
:10058000FFF78FFE3248854200D203E0A02128A069
:10059000FFF787FE2F4905EA010020432949091F7B
:1005A000086070BD70B504460D46102C03D0042CB5
:1005B00001D0022C00D103E0B2211DA0FFF771FE93
:1005C0000DB1012D00D103E0B32119A0FFF769FEA1
:1005D0003DB11C48001D006820431A49091D0860F0
:1005E00006E01848001D0068A0431649091D086070
:1005F00070BD10B50446042C01D0601D00B903E0A5
:10060000CA210BA0FFF74DFE042C08D14FF0E020CB
:10061000006940F004004FF0E021086107E04FF06E
:10062000E020006920F004004FF0E021086110BDD7
:1006300053504C5C7372635C6D6973632E6300008E
:100640000000FA050CED00E000E400E080E100E0CD
:10065000FFFF0F0080FFFF1FFE48006840F0010011
:10066000FC49086008464068FB490840F949486071
:1006700008460068F9490840F649086008460068DD
:1006800020F4802008600846406820F4FE0048609E
:100690004FF41F008860704710B504462CB1B4F5C4
:1006A000803F02D0B4F5802F00D104E040F2111158
:1006B000EBA0FFF7F6FDE748006820F48030E5493D
:1006C00008600846006820F480200860B4F5803F88
:1006D00003D0B4F5802F0ED106E0DE48006840F468
:1006E0008030DC49086007E0DA48006840F4A02068
:1006F000D849086000E000BF00BF10BD2DE9F041FF
:100700000446002500260027212C13D0312C11D0BF
:10071000392C0FD0412C0DD0612C0BD07A2C09D064
:100720007B2C07D07C2C05D07D2C03D07E2C01D0D7
:100730007F2C00D104E040F23451C9A0FFF7B1FD95
:100740006511012D02D1C348066806E0022D02D1D1
:10075000C048066A01E0BF48466A04F01F05012050
:10076000A840304008B1012700E000273846BDE826
:10077000F08138B5002000900024002500BF312012
:10078000FFF7BCFF05460098401C00900098B0F5AC
:10079000A06F01D0002DF2D03120FFF7AFFF08B1DC
:1007A000012400E00024204638BD70B50446002531
:1007B0001F2C00DC04E04FF4A971A9A0FFF771FD24
:1007C000A448056825F0F80545EAC405056070BD34
:1007D00010B504460CB1012C00D104E040F26511C3
:1007E0009FA0FFF75EFDA448046010BD70B50546EC
:1007F0000C4600262DB1B5F5803F02D0B5F5403F3F
:1008000000D104E040F27F1195A0FFF74AFD4CB300
:10081000B4F5802F26D0B4F5002F23D0B4F5402FA7
:1008200020D0B4F5801F1DD0B4F5A01F1AD0B4F5A8
:10083000C01F17D0B4F5E01F14D0B4F5001F11D0BD
:10084000B4F5101F0ED0B4F5201F0BD0B4F5301F37
:1008500008D0B4F5401F05D0B4F5501F02D0B4F550
:10086000601F00D104E04FF4C0717DA0FFF719FDB7
:100870007848466826F47C1645EA04000643754825
:10088000466070BD10B504460CB1012C00D104E0E7
:100890004FF4CA7172A0FFF704FD7748046610BDDB
:1008A00070B5044600251CB1012C01D0022C00D1EA
:1008B00004E04FF40E716AA0FFF7F3FC6548456849
:1008C00025F003052543456070BD6248406800F08F
:1008D0000C00704770B5044600257CB1802C0DD00B
:1008E000902C0BD0A02C09D0B02C07D0C02C05D058
:1008F000D02C03D0E02C01D0F02C00D104E04FF438
:10090000197157A0FFF7CDFC5248456825F0F00556
:100910002543456070BD70B5044600255CB1B4F553
:10092000806F08D0B4F5A06F05D0B4F5C06F02D0C9
:10093000B4F5E06F00D104E040F27E2148A0FFF75B
:10094000B0FC4448456825F4E0652543456070BD2A
:1009500070B5044600255CB1B4F5806F08D0B4F5DD
:10096000A06F05D0B4F5C06F02D0B4F5E06F00D130
:1009700004E04FF426713AA0FFF793FC3548456830
:1009800025F4605545EAC405456070BD70B5044660
:100990000D4604F0E00008B904B104E040F2BF21C4
:1009A0002FA0FFF77EFC0DB1012D00D104E04FF424
:1009B00030712BA0FFF775FC2DB12648407A2043FB
:1009C0002449487204E02348407AA04321494872F0
:1009D00070BD10B504460CB1012C00D104E040F20A
:1009E000DB211FA0FFF75DFC2348D830046010BD59
:1009F00070B50446002544B1B4F5804F05D0B4F578
:100A0000004F02D0B4F5404F00D104E040F2023173
:100A100013A0FFF746FC0F48456825F440452543E1
:100A2000456070BD10B504461CB1012C01D0042CEA
:100A300000D104E04FF4507109A0FFF732FC002010
:100A4000044920310870034981F82000012C17D097
:100A5000042C13E0001002400000FFF8FFFFF6FE38
:100A600053504C5C7372635C73746D333266313017
:100A7000785F7263632E63000000424208D103E096
:100A80000120F449087004E00520F249087000E0F4
:100A900000BF00BF10BD10B504460CB1012C00D141
:100AA00005E040F26131AFF24800FFF7FAFBEA4897
:100AB000046010BD10B50446B4F5807F05D0B4F5D0
:100AC000007F02D0B4F5407F00D105E040F27231E2
:100AD000AFF27400FFF7E5FBDE482038006A2043E0
:100AE000DC492039086210BD10B504460CB1012C58
:100AF00000D105E04FF46071AFF29C00FFF7D1FB2D
:100B0000D5484438046010BD30B5002100220024CF
:100B10000023D04D203D6D6805F00C0121B1042962
:100B200005D0082926D105E0CC4D056025E0CB4D48
:100B3000056022E0C74D203D6D6805F47012C54D7B
:100B4000203D6D6805F48034022505EB92421CB906
:100B5000C34D554305600CE0BE4D203D6D6805F466
:100B600000351DB1BE4D5543056002E0BB4D5543F8
:100B7000056002E0B94D056000BF00BFB54D203DE6
:100B80006D6805F0F0010909B64D6B5C0568DD4044
:100B90004560B04D203D6D6805F4E061090AB14D36
:100BA0006B5C4568DD408560AA4D203D6D6805F4AD
:100BB0006051C90AAB4D6B5C4568DD40C560A54D11
:100BC000203D6D6805F44041890BA74D6B5CC568FD
:100BD000B5FBF3F5056130BD70B504460D4640F236
:100BE000575024EA000008B904B105E040F22B4157
:100BF000AFF29410FFF755FB0DB1012D00D105E0C8
:100C000040F22C41AFF2A810FFF74BFB3DB19148E9
:100C10002038406920438F492039486106E08D48DB
:100C200020384069A0438B492039486170BD70B5B8
:100C300004460D468D48204008B904B105E040F255
:100C40004A41AFF2E410FFF72CFB0DB1012D00D1AA
:100C500005E040F24B41AFF2F810FFF722FB3DB147
:100C60007C482038806920437A492039886106E031
:100C7000784820388069A04376492039886170BD62
:100C800070B504460D467A48204008B904B105E025
:100C900040F26941AFF23820FFF703FB0DB1012D9F
:100CA00000D105E040F26A41AFF24C20FFF7F9FABB
:100CB0003DB168482038C069204366492039C86181
:100CC00006E064482038C069A04362492039C86101
:100CD00070BD70B504460D466448204008B904B1A3
:100CE00005E040F2A441AFF28820FFF7DAFA0DB137
:100CF000012D00D105E040F2A541AFF29C20FFF7A5
:100D0000D0FA3DB153482038C068204351492039BA
:100D1000C86006E04F482038C068A0434D492039DC
:100D2000C86070BD70B504460D465148204008B9F2
:100D300004B105E040F2C341AFF2DC20FFF7B1FAA5
:100D40000DB1012D00D105E040F2C441AFF2F02019
:100D5000FFF7A7FA3DB13F482038006920433D49DD
:100D60002039086106E03B4820380069A043394932
:100D70002039086170BD10B504460CB1012C00D1BA
:100D800005E04FF49B61AFF22830FFF78AFA324852
:100D90004038046010BD10B504460CB1012C00D1E0
:100DA00005E040F2E541AFF24830FFF77AFA31480A
:100DB000C46410BD10B504463CB1052C05D0042C0C
:100DC00003D0062C01D0072C00D105E040F20551DC
:100DD000AFF27430FFF765FA1E482038C47110BDB9
:100DE0001C482038406A40F080701A492039486217
:100DF000704770B504460025012C09D0022C07D09D
:100E0000042C05D0082C03D0102C01D0802C00D14C
:100E100005E040F27E51AFF2B830FFF742FA0D48DC
:100E200020388068204008B1012500E000252846D0
:100E300070BD10B5044604F0600008B904B105E0C7
:100E400040F2AB51AFF2E830FFF72BFA01482038FF
:100E5000847210BD201002408004424200127A00C9
:100E600000093D0014000020240000200200C0FF03
:100E7000003601810000424210B50446FC4884421D
:100E800011D0FC4884420ED0FB4884420BD0FB4872
:100E9000844208D0FA48844205D0FA48844202D0FD
:100EA000F948844200D103E06F21F8A0FFF7F9F977
:100EB000EF48844208D101210420FFF70AFF0021F6
:100EC0000420FFF706FF46E0EA48844208D10121EA
:100ED0000820FFF7FEFE00210820FFF7FAFE3AE0A7
:100EE000E548844208D101211020FFF7F2FE0021DD
:100EF0001020FFF7EEFE2EE0E048844208D10121E9
:100F00002020FFF7E6FE00212020FFF7E2FE22E08E
:100F1000DB48844208D101214020FFF7DAFE00219E
:100F20004020FFF7D6FE16E0D648844208D10121C2
:100F30008020FFF7CEFE00218020FFF7CAFE0AE0E6
:100F4000D148844207D101218015FFF7C2FE00215C
:100F5000A015FFF7BEFE10BD10B501210846FFF732
:100F6000B8FE00210120FFF7B4FE10BD2DE9F05FAF
:100F700005460C464FF00009CA4600260027B04639
:100F8000B346BB48854211D0BA4885420ED0BA4814
:100F900085420BD0B948854208D0B948854205D072
:100FA000B848854202D0B848854200D103E0B2215A
:100FB000B6A0FFF776F9E078A0B1E078042811D068
:100FC000E07828280ED0E07848280BD0E078142864
:100FD00008D0E078102805D0E0781C2802D0E0780E
:100FE000182800D103E0B321A8A0FFF75AF9002088
:100FF00010B9208800B103E0B421A4A0FFF751F993
:10100000E07800F00F09E07800F0100080B1A078DF
:10101000012805D0A078022802D0A078032800D1AA
:1010200003E0BB2199A0FFF73CF9A07840EA090949
:10103000207838B3D5F8008000261FE0012000FAA0
:1010400006F7208800EA070ABA4516D1B7000F2034
:1010500000FA07FB28EA0B0809FA07F040EA08083B
:10106000E078282803D10120B040686105E0E078ED
:10107000482802D10120B0402861761C082EDDD31B
:10108000C5F800802088FF282BDDD5F804800026D5
:1010900023E006F10800012101FA00F7208800EAA8
:1010A000070ABA4518D1B7000F2000FA07FB28EA53
:1010B0000B0809FA07F040EA0808E078282803D16D
:1010C00006F1080081406961E078482804D106F102
:1010D0000800012181402961761C082ED9D3C5F86A
:1010E0000480BDE8F09F4FF6FF71018002218170FE
:1010F0000421C170704770B505460C4600265C4857
:10110000854211D05B4885420ED05B4885420BD0AA
:101110005A48854208D05A48854205D059488542E8
:1011200002D05948854200D104E04FF48F7157A096
:10113000FFF7B7F8012C25D0022C23D0042C21D0A6
:10114000082C1FD0102C1DD0202C1BD0402C19D0C7
:10115000802C17D0B4F5807F14D0B4F5007F11D067
:10116000B4F5806F0ED0B4F5006F0BD0B4F5805F8E
:1011700008D0B4F5005F05D0B4F5804F02D0B4F5C7
:10118000004F00D104E040F21F1140A0FFF789F8A2
:10119000A868204008B1012600E00026304670BD56
:1011A00010B504463248844211D0324884420ED0F1
:1011B000314884420BD03148844208D030488442C0
:1011C00005D03048844202D02F48844200D104E048
:1011D0004FF49A712DA0FFF764F8A06880B210BD9B
:1011E00070B505460C4600262148854211D021489D
:1011F00085420ED0204885420BD02048854208D039
:101200001F48854205D01F48854202D01E488542AE
:1012100000D104E04FF4A2711CA0FFF742F8012CAA
:1012200025D0022C23D0042C21D0082C1FD0102C28
:101230001DD0202C1BD0402C19D0802C17D0B4F5F9
:10124000807F14D0B4F5007F11D0B4F5806F0ED03C
:10125000B4F5006F0BD0B4F5805F08D0B4F5005F33
:1012600005D0B4F5804F02D0B4F5004F1CD121E079
:1012700000080140000C0140001001400014014032
:1012800000180140001C01400020014053504C5CFC
:101290007372635C73746D3332663130785F67707C
:1012A000696F2E630000000040F24511AFF2240088
:1012B000FEF7F7FFE868204008B1012600E00026AD
:1012C000304670BD10B50446FE48844211D0FE4839
:1012D00084420ED0FD4884420BD0FD48844208D0A1
:1012E000FC48844205D0FC48844202D0FB4884423A
:1012F00000D105E04FF4AD71AFF27000FEF7D1FF01
:10130000E06880B210BD70B504460D46ED488442D9
:1013100011D0ED4884420ED0EC4884420BD0EC480A
:10132000844208D0EB48844205D0EB48844202D086
:10133000EA48844200D105E040F26911AFF2B400FE
:10134000FEF7AFFF002008B905B105E04FF4B57115
:10135000AFF2C800FEF7A5FF256170BD70B5044669
:101360000D46D848844211D0D74884420ED0D74881
:1013700084420BD0D648844208D0D648844205D057
:10138000D548844202D0D548844200D105E040F2DD
:101390007911AFF20810FEF784FF002008B905B1FB
:1013A00005E04FF4BD71AFF21C10FEF77AFF6561E6
:1013B00070BD70B505460C461646C248854211D030
:1013C000C14885420ED0C14885420BD0C0488542F5
:1013D00008D0C048854205D0BF48854202D0BF48EA
:1013E000854200D105E040F28D11AFF26010FEF7AA
:1013F00058FF012C25D0022C23D0042C21D0082CFE
:101400001FD0102C1DD0202C1BD0402C19D0802C8C
:1014100017D0B4F5807F14D0B4F5007F11D0B4F5A7
:10142000806F0ED0B4F5006F0BD0B4F5805F08D09C
:10143000B4F5005F05D0B4F5804F02D0B4F5004F8D
:1014400000D105E04FF4C771AFF2C010FEF729FFDD
:101450000EB1012E00D105E040F28F11AFF2D41091
:10146000FEF71FFF0EB12C6100E06C6170BD70B51E
:1014700004460D469348844211D0934884420ED0CE
:10148000924884420BD09248844208D091488442CA
:1014900005D09148844202D09048844200D105E0B2
:1014A0004FF4D271AFF21C20FEF7FBFEE56070BD79
:1014B00070B504460D464FF480368248844211D000
:1014C000814884420ED0814884420BD080488442B7
:1014D00008D08048844205D07F48844202D07F48AB
:1014E000844200D105E040F2B511AFF26020FEF772
:1014F000D8FE002008B905B105E04FF4DB71AFF26A
:101500007420FEF7CEFE2E43A661A561A661A669F2
:10151000A66970BD70B505460C4600263DB1012D8B
:1015200005D0022D03D0032D01D0042D00D105E0FC
:101530004FF4E971AFF2AC20FEF7B3FEECB1012C31
:101540001BD0022C19D0032C17D0042C15D0052C3D
:1015500013D0062C11D0072C0FD0082C0DD0092C3D
:101560000BD00A2C09D00B2C07D00C2C05D00D2C3D
:1015700003D00E2C01D00F2C00D105E040F2D31186
:10158000AFF2F820FEF78DFE554806684FF68070E2
:10159000064046EA051626435148066070BD10B560
:1015A00004460CB1012C00D105E04FF4F371AFF209
:1015B0002430FEF776FE4B48C46110BD2DE9F0479C
:1015C00004460E460027B8460025A946012C77D0D0
:1015D000022C75D0042C73D0082C71D04248844260
:1015E0006ED04148203084426AD04048844267D05F
:1015F0003E488030844263D03D48844260D03D48BC
:1016000084425DD03C4884425AD03C48844257D002
:101610003B48844254D0B4F5805F51D0B4F5EA1F02
:101620004ED0B4F5EB1F4BD0B4F5004F48D0354841
:10163000844245D0401C844242D0801C84427FD0EA
:10164000001D84427CD02F480F30844278D0B4F102
:10165000201F75D04FEAF030844271D02A4884426E
:101660006ED02A4884426BD02948844268D02948E9
:10167000844265D02848844262D0B4F5011F5FD00F
:10168000264884425CD0401C844259D0801C84424D
:1016900056D0001D844253D020480F3084424FD092
:1016A0001E481F3084424BD01C483F30844247D0F4
:1016B0001A487F30844243D01848FF3084422FE0DC
:1016C0003EE0000000080140000C01400010014015
:1016D0000014014000180140001C0140002001409E
:1016E00000000140000020421000140040001600DD
:1016F00000011800000218000003180000081A007A
:10170000000C1A000100200000013000000230002F
:1017100000043000001120000020200001000080A3
:101720000ED0664884420BD06548844208D0654894
:10173000844205D06448844202D06448844200D187
:1017400005E040F22A21AFF2BC40FEF7AAFD0EB13F
:10175000012E00D105E040F22B21AFF2D040FEF780
:10176000A0FD04F00040B0F1004F02D15848C56917
:1017700001E057484568C4F30349A7B204F4401098
:10178000B0F5401F08D125F070655148406820F041
:1017900070604F49486013E004F48010B0F5801F7A
:1017A00007D1032000FA09F825EA080545F070651D
:1017B00006E0600D000107FA00F0854345F0706512
:1017C00026B1600D010107FA01F0054304F0004065
:1017D000B0F1004F02D13E48C56101E03C48456090
:1017E000BDE8F08770B505460C4600265DB1012DB9
:1017F00009D0022D07D0032D05D0042D03D0052DCF
:1018000001D0062D00D105E040F26521AFF28450F1
:10181000FEF747FDECB1012C1BD0022C19D0032C94
:1018200017D0042C15D0052C13D0062C11D0072C62
:101830000FD0082C0DD0092C0BD00A2C09D00B2C62
:1018400007D00C2C05D00D2C03D00E2C01D00F2C62
:1018500000D105E040F26621AFF2D050FEF721FD45
:10186000A007010F0F2000FA01F619480830A11057
:1018700050F82100B04316490831A21041F8220067
:101880000846A11050F82100A107090F05FA01F13F
:1018900008430F490831A21041F8220070BD10B56D
:1018A00004460CB1012C00D105E04FF41E71AFF2DB
:1018B0002460FEF7F6FC0748046010BD00020080BB
:1018C00000040080000800800010008000200080DC
:1018D00000000140DC00204210B50446FE4884426E
:1018E0000BD0FE48844208D0FD48844205D0FD4814
:1018F000844202D0FC48844200D103E08521FBA051
:10190000FEF7CFFCF448844209D101218803FFF798
:10191000E0F900214FF48040FFF7DBF932E0EF48B7
:10192000844209D101214804FFF7FCF900214FF45A
:101930000030FFF7F7F925E0E948844209D1012199
:101940008804FFF7EFF900214FF48020FFF7EAF950
:1019500018E0E448844209D10121C804FFF7E2F904
:1019600000214FF40020FFF7DDF90BE0DE48844250
:1019700008D101210805FFF7D5F900214FF48010A7
:10198000FFF7D0F910BD2DE9F04786B005460C46AB
:101990000026B24600BFB1460027CF4885420BD093
:1019A000CE48854208D0CE48854205D0CD488542F4
:1019B00002D0CD48854200D103E0B821CBA0FEF78C
:1019C00070FC206820B1D0492068884200D203E032
:1019D000B921C6A0FEF765FCA08818B1A088B0F5B3
:1019E000805F00D103E0BA21C0A0FEF75AFCE08876
:1019F00058B1E088B0F5805F07D0E088B0F5005FAF
:101A000003D0E088B0F5405F00D103E0BB21B7A070
:101A1000FEF747FC208938B12089B0F5806F03D0EC
:101A20002089B0F5C06F00D103E0BC21AFA0FEF764
:101A300038FC60894FF6F371084010B9608900B135
:101A400003E0BD21A9A0FEF72CFCA08958B1A08914
:101A5000B0F5807F07D0A089B0F5007F03D0A089C2
:101A6000B0F5407F00D103E0BE21A0A0FEF719FC35
:101A7000A08968B19848854205D09848854202D02F
:101A80009748854200D103E0C22198A0FEF709FCE7
:101A90002F462E8A4CF6FF700640E08806432E82C1
:101AA000AE894EF6F3100640A0882189084361896B
:101AB00008430643AE81AE8A4FF6FF400640A08938
:101AC0000643AE8201A8FFF71FF88348874202D180
:101AD000DDF810A001E0DDF80CA0A88900F40040BA
:101AE00040B10AEBCA0000EB0A1021684900B0FBC4
:101AF000F1F807E00AEBCA0000EB0A102168890040
:101B0000B0FBF1F86420B8FBF0F006013009642165
:101B100001FB1089A88900F4004040B1322000EB9D
:101B2000C900B0FBF1F000F00700064308E03220E6
:101B300000EB09106421B0FBF1F000F00F00064348
:101B40002E8106B0BDE8F0874FF4165101600021E8
:101B50008180C18001810C214181002181817047F8
:101B600070B505460C4600265B48854205D05B48AB
:101B7000854202D05A48854200D104E04FF4997161
:101B80005AA0FEF78EFB208818B12088B0F5006FB0
:101B900000D104E040F2331154A0FEF782FB6088CC
:101BA00018B16088B0F5806F00D104E04FF49A71ED
:101BB0004EA0FEF776FBA08818B1A088B0F5007F94
:101BC00000D104E040F2351148A0FEF76AFBE0883E
:101BD00018B1E088B0F5807F00D104E04FF49B712C
:101BE00042A0FEF75EFB2E8A4FF2FF0006402088DF
:101BF00061880843A1880843E188084306432E8290
:101C000070BD0021018041808180C180704770B526
:101C100004460D46304884420BD03048844208D0F8
:101C20002F48844205D02F48844202D02E48844257
:101C300000D104E04FF4B1712CA0FEF732FB0DB1DE
:101C4000012D00D104E040F2631128A0FEF729FB2A
:101C500025B1A08940F40050A08104E0A0894DF690
:101C6000FF710840A08170BD2DE9F04705460C4684
:101C700017464FF00008C246C14600261648854266
:101C80000BD01648854208D01548854205D0154826
:101C9000854202D01448854200D104E040F2891107
:101CA00012A0FEF7FEFA282C34D040F227708442AE
:101CB00030D040F2266084422CD040F2255084423D
:101CC00028D040F22440844224D040F6460084428A
:101CD00020D040F66A1019E000380140004400406E
:101CE00000480040004C00400050004053504C5C05
:101CF0007372635C73746D3332663130785F757301
:101D00006172742E6300000021AA4400844201D055
:101D1000602C00D105E04FF4C571AFF23000FEF742
:101D2000C0FA0FB1012F00D105E040F28B11AFF2E4
:101D30004400FEF7B6FA40F66A1084420FD1F94823
:101D4000854205D0F848854202D0F848854200D146
:101D500005E040F28F11AFF26C00FEF7A2FA2E46BA
:101D6000C4F3421804F01F0A012000FA0AF9B8F17E
:101D7000010F01D10C3605E0B8F1020F01D1103688
:101D800000E0143627B1306840EA0900306003E013
:101D9000306820EA09003060BDE8F08770B504467D
:101DA0000D461646DF4884420BD0DF48844208D0F7
:101DB000DE48844205D0DE48844202D0DD488442B9
:101DC00000D105E040F2C311AFF2E000FEF769FA7E
:101DD0004FF63F70284008B905B105E04FF4E271B5
:101DE000AFF2F800FEF75DFA0EB1012E00D105E06A
:101DF00040F2C511AFF20C10FEF753FA1EB1A08AE3
:101E00002843A08202E0A08AA843A08270BD70B5DA
:101E100004460D46C34884420BD0C348844208D0D0
:101E2000C248844205D0C248844202D0C14884429C
:101E300000D105E040F2DF11AFF25010FEF731FAA9
:101E40000F2D00DC05E04FF4F071AFF26010FEF7EB
:101E500028FA208A4FF6F07108402082208A284311
:101E6000208270BD70B504460D46AE4884420BD04A
:101E7000AD48844208D0AD48844205D0AC48844285
:101E800002D0AC48844200D105E04FF4FB71AFF2C0
:101E9000A410FEF706FA15B1B5F5006F00D105E004
:101EA00040F2F711AFF2BC10FEF7FBF9A0894FF238
:101EB000FF710840A081A0892843A08170BD70B542
:101EC00004460D46974884420BD09748844208D078
:101ED0009648844205D09648844202D09548844270
:101EE00000D105E040F20921AFF20020FEF7D9F958
:101EF0000DB1012D00D105E040F20A21AFF214200E
:101F0000FEF7CFF925B1A08940F00200A08104E0DE
:101F1000A0894FF6FD710840A08170BD70B50446E0
:101F20000D46804884420BD07F48844208D07F48C9
:101F3000844205D07E48844202D07E48844200D14B
:101F400005E040F22621AFF25C20FEF7AAF90DB1C0
:101F5000202D00D105E040F22721AFF27020FEF7DE
:101F6000A0F9208A4FF6DF7108402082208A28439A
:101F7000208270BD70B504460D466A4884420BD07D
:101F80006948844208D06948844205D06848844240
:101F900002D06848844200D105E040F23921AFF216
:101FA000B420FEF77EF90DB1012D00D105E040F21D
:101FB0003A21AFF2C820FEF774F925B1208A40F427
:101FC0008040208204E0208A4BF6FF710840208286
:101FD00070BD70B504460D46524884420BD052483D
:101FE000844208D05148844205D05148844202D0EE
:101FF0005048844200D105E040F25321AFF2143042
:10200000FEF74FF9B5F5007F00DA05E04FF41571E2
:10201000AFF22830FEF745F9C5F30800A08070BD87
:1020200010B504463F4884420BD03F48844208D054
:102030003E48844205D03E48844202D03D48844216
:1020400000D105E04FF41971AFF26030FEF729F9C5
:10205000A088C0F3080010BD10B504463148844282
:102060000BD03148844208D03048844205D03048F3
:10207000844202D02F48844200D105E04FF41D7104
:10208000AFF29830FEF70DF9A08940F00100A08171
:1020900010BD70B504460D462248844205D0224842
:1020A000844202D02148844200D105E04FF42171DE
:1020B000AFF2C830FEF7F5F8208BC0B22083208B3A
:1020C00040EA0520208370BD70B504460D461548D2
:1020D00084420BD01448844208D01448844205D06E
:1020E0001348844202D01348844200D105E04FF4E3
:1020F0002671AFF20840FEF7D4F8208B00F47F4041
:102100002083208B2843208370BD70B504460D4684
:102110000448844205D00448844202D003488442E3
:102120000AD10FE000380140004400400048004060
:10213000004C00400050004040F2AB21AFF2544050
:10214000FEF7AFF80DB1012D00D105E04FF42B7172
:10215000AFF26840FEF7A5F825B1A08A40F0200054
:10216000A08204E0A08A4FF6DF710840A08270BD13
:1021700070B504460D46F948844205D0F8488442BB
:1021800002D0F848844200D105E04FF43171AFF23B
:10219000A440FEF786F80DB1012D00D105E040F214
:1021A000C521AFF2B840FEF77CF825B1A08A40F017
:1021B0001000A08204E0A08A4FF6EF710840A082D0
:1021C00070BD70B504460D46E44884420BD0E44827
:1021D000844208D0E348844205D0E348844202D0D8
:1021E000E248844200D105E040F2DE21AFF2045023
:1021F000FEF757F80DB1012D00D105E040F2DF21C7
:10220000AFF21850FEF74DF825B1A08A40F0080053
:10221000A08204E0A08A4FF6F7710840A08270BD4A
:1022200070B504460D46CD4884420BD0CC4884425C
:1022300008D0CC48844205D0CB48844202D0CB4859
:10224000844200D105E040F2FD21AFF26050FEF77C
:1022500028F80DB1012D00D105E040F2FE21AFF2CA
:102260007450FEF71EF825B1A08940F40040A0810B
:1022700003E0A089C0F30E00A08170BD70B50446D4
:102280000D46B64884420BD0B548844208D0B548C4
:10229000844205D0B448844202D0B448844200D17C
:1022A00005E04FF44671AFF2BC50FDF7FAFF0DB1F7
:1022B000012D00D105E040F21931AFF2D050FDF709
:1022C000F0FF25B1A08A40F40060A08204E0A08A5B
:1022D0004FF2FF710840A08270BD70B504460D46F4
:1022E0009E4884420BD09E48844208D09D48844238
:1022F00005D09D48844202D09C48844200D105E02C
:1023000040F23531AFF21C60FDF7CBFF042D00D059
:1023100005B905E040F23631AFF23060FDF7C1FF9C
:10232000A08A4FF6FB710840A082A08A2843A082B1
:1023300070BD70B504460D46884884420BD088486D
:10234000844208D08748844205D08748844202D01E
:102350008648844200D105E04FF45271AFF27460B8
:10236000FDF79FFF0DB1012D00D105E040F249318D
:10237000AFF28860FDF795FF25B1A08A40F002001A
:10238000A08204E0A08A4FF6FD710840A08270BDD3
:1023900070B505460C460026704885420BD0704843
:1023A000854208D06F48854205D06F48854202D0EB
:1023B0006E48854200D105E040F26E31AFF2D46044
:1023C000FDF76FFF012C13D0802C11D0402C0FD0C3
:1023D000202C0DD0102C0BD0B4F5807F08D0B4F594
:1023E000007F05D0082C03D0042C01D0022C00D192
:1023F00005E040F26F31AFF20C70FDF752FFB4F51B
:10240000007F0FD15548854205D05548854202D0FE
:102410005448854200D105E040F27331AFF2347088
:10242000FDF73FFF2888204008B1012600E0002684
:10243000304670BD70B504460D46484884420BD006
:102440004748844208D04748844205D046488442E1
:1024500002D04648844200D105E040F29E31AFF2FE
:102460007470FDF71EFF4FF69F40284008B905B174
:1024700005E040F29F31AFF28C70FDF712FF05F4DA
:102480000070B0F5007F0FD13448844205D0344845
:10249000844202D03348844200D105E040F2A331A7
:1024A000AFF2B870FDF7FDFEE843208070BD2DE966
:1024B000F04705460C4600270026B046B14627489F
:1024C00085420BD02648854208D02648854205D053
:1024D0002548854202D02548854200D105E040F2DA
:1024E000C131AFF2F870FDF7DCFE282C20D040F2AD
:1024F000277084421CD040F22660844218D040F2FB
:102500002550844214D040F22440844210D040F63A
:10251000460084420CD040F66A10844208D0B4F5DC
:10252000587F05D0B4F5187F02D0B4F5B07F00D144
:1025300005E040F2C231AFF64C00FDF7B2FE40F6C6
:102540006A1084421AD10548854205D00448854264
:1025500002D0044885420BD110E000000038014051
:102560000044004000480040004C00400050004043
:1025700040F2C631AFF68C00FDF793FEC4F342186B
:1025800004F01F06012000FA06F6B8F1010F02D18F
:10259000A889064007E0B8F1020F02D1288A064058
:1025A00001E0A88A06402712012000FA07F72888D0
:1025B00007401EB117B14FF0010901E04FF00009CB
:1025C0004846BDE8F0872DE9F04104460D46002657
:1025D0000027244884420BD02348844208D0234853
:1025E000844205D02248844202D02248844200D14D
:1025F00005E040F20A41AFF60C10FDF752FE40F242
:10260000266085420BD040F22550854207D040F627
:102610004600854203D040F66A10854200D105E0AD
:1026200040F20B41AFF63C10FDF73BFE40F66A105E
:1026300085420FD10B48844205D00B48844202D01A
:102640000A48844200D105E040F20F41AFF6641021
:10265000FDF727FE2E120120B04087B2F8432080FC
:10266000BDE8F081003801400044004000480040CF
:10267000004C00400050004010B50446F848844229
:102680002FD0B4F1804F2CD0F648844229D0F648A0
:10269000844226D0F548844223D0F548844220D095
:1026A000F44884421DD0F44884421AD0F34884424E
:1026B00017D0F348844214D0F248844211D0F24833
:1026C00084420ED0F14884420BD0F148844208D0B5
:1026D000F048844205D0F048844202D0EF4884425A
:1026E00000D103E07D21EEA0FDF7DBFDDC48844254
:1026F00008D10121C014FEF7ECFA0021E014FEF726
:10270000E8FAC4E0B4F1804F08D101210846FEF791
:1027100009FB00210120FEF705FBB8E0D148844207
:1027200008D101210220FEF7FDFA00210220FEF768
:10273000F9FAACE0CC48844208D101210420FEF72C
:10274000F1FA00210420FEF7EDFAA0E0C748844228
:1027500008D101210820FEF7E5FA00210820FEF744
:10276000E1FA94E0C248844208D101211020FEF72A
:10277000D9FA00211020FEF7D5FA88E0BD4884423E
:1027800008D101212020FEF7CDFA00212020FEF7FC
:10279000C9FA7CE0B848844208D101214014FEF710
:1027A00098FA00216014FEF794FA70E0B34884426E
:1027B00009D10121C804FEF78CFA00214FF4002052
:1027C000FEF787FA63E0AE48844209D1012108058B
:1027D000FEF77FFA00214FF48010FEF77AFA56E0F8
:1027E000A848844209D101214805FEF772FA002168
:1027F0004FF40010FEF76DFA49E0A348844208D177
:1028000001214020FEF78EFA00214020FEF78AFACF
:102810003DE09E48844208D101218020FEF782FAE3
:1028200000218020FEF77EFA31E09948844208D1E9
:1028300001218015FEF776FA0021A015FEF772FA45
:1028400025E09448844209D101210804FEF741FAA9
:1028500000214FF48030FEF73CFA18E08E488442A5
:1028600009D101214804FEF734FA00214FF4003069
:10287000FEF72FFA0BE08948844208D10121880431
:10288000FEF727FA00214FF48020FEF722FA10BD50
:1028900070B504460D460026714884422FD0B4F12D
:1028A000804F2CD06F48844229D06F48844226D074
:1028B0006E48844223D06E48844220D06D488442C2
:1028C0001DD06D4884421AD06C48844217D06C48A1
:1028D000844214D06B48844211D06B4884420ED09D
:1028E0006A4884420BD06A48844208D069488442CE
:1028F00005D06948844202D06848844200D103E090
:10290000E72167A0FDF7CDFC688858B168881028DA
:1029100008D06888202805D06888402802D06888B8
:10292000602800D103E0E8215DA0FDF7BAFCE8884B
:1029300038B1E888B0F5807F03D0E888B0F5007F33
:1029400000D103E0E92156A0FDF7ABFC26884448FE
:1029500084420ED0484884420BD0B4F1804F08D056
:102960004048844205D04048844202D03F488442D7
:1029700004D14FF68F700640688806433C48844275
:1029800007D03C48844204D04FF6FF400640E88818
:1029900006432680A888A085288820853048844260
:1029A0000BD03548844208D03A48844205D03A4892
:1029B000844202D03948844201D1287A20860120FD
:1029C000A08270BD2DE9F04104460D464FF000088D
:1029D000002600272248844229D0B4F1804F26D017
:1029E0002048844223D02048844220D01F4884427B
:1029F0001DD0214884421AD02048844217D0204854
:102A0000844214D01F48844211D01F4884420ED003
:102A10001E4884420BD01E48844208D01D48844280
:102A200005D01D48844202D01C48844200D104E0F5
:102A30004FF48E711AA0FDF734FC288870B12888F5
:102A400010280BD02888202808D02888302805D0C6
:102A50002888602802D0288870282DD132E0000014
:102A6000002C01400004004000080040000C004021
:102A7000001000400014004000340140004C0140B0
:102A8000005001400054014000180040001C00406C
:102A90000020004000400140004401400048014047
:102AA00053504C5C7372635C73746D3332663130B7
:102AB000785F74696D2E630040F21D11AFF2200043
:102AC000FDF7EFFB688810B16888012800D105E0A8
:102AD0004FF48F71AFF23800FDF7E3FB288910B196
:102AE0002889022800D105E040F21F11AFF2500002
:102AF000FDF7D7FB208C4FF6FE7108402084268C12
:102B0000A788B4F818804FF68F7008EA0008881E6E
:102B100008EA0008288840EA0808481E0640288974
:102B2000064368880643FE4884420BD0FD48844231
:102B300008D0FD48844205D0FC48844202D0FC48BD
:102B4000844245D1A88810B1A888042800D105E0A6
:102B50004FF49E71AFF2B800FDF7A3FB688910B186
:102B60006889082800D105E040F23D11AFF2D0009D
:102B7000FDF797FBE889B0F5007F01D0E88900B93F
:102B800005E04FF49F71AFF2E800FDF78AFBA889DA
:102B9000B0F5807F01D0A88900B905E040F23F116F
:102BA000AFF20410FDF77DFB4FF6F7700640688921
:102BB00006434FF6FB700640A88806434FF6FF60B9
:102BC00007404FF6FF500740A8890743E8890743AD
:102BD000A780A4F81880E888A0862684BDE8F08144
:102BE0002DE9F04105460C464FF00008002600276D
:102BF000CB48854217D0B5F1804F14D0CD488542DF
:102C000011D0CD4885420ED0CC4885420BD0C54866
:102C1000854208D0CA48854205D0CA48854202D0BC
:102C2000C148854200D105E040F26F11AFF290102B
:102C3000FDF737FB208870B1208810280BD0208842
:102C4000202808D02088302805D02088602802D08D
:102C50002088702800D105E04FF4B871AFF2C010A1
:102C6000FDF71FFB608810B16088012800D105E0E6
:102C700040F27111AFF2D810FDF713FB208910B1AB
:102C80002089022800D105E04FF4B971AFF2F010AD
:102C9000FDF707FB288C4FF6EF71084028842E8C37
:102CA000AF88B5F8188048F6FF7008EA00084FF6BC
:102CB000FF4008EA000820884FF6FF7101EA002073
:102CC00040EA08084FF6DF700640208901EA00104C
:102CD0000643608801EA001006439148854202D00D
:102CE000904885424FD1A08810B1A088042800D117
:102CF00005E040F28F11AFF25820FDF7D2FA60895B
:102D000010B16089082800D105E04FF4C871AFF216
:102D10007020FDF7C6FAE089B0F5007F01D0E089A8
:102D200000B905E040F29111AFF28C20FDF7B9FA3D
:102D3000A089B0F5807F01D0A08900B905E04FF4EB
:102D4000C971AFF2A420FDF7ACFA4FF67F700640D0
:102D500060894FF6FF7101EA001006434FF6BF701D
:102D60000640A08801EA001006434FF6FF300740F6
:102D70004FF2FF700740A08901EA80000743E08915
:102D800001EA80000743AF80A5F81880E088288713
:102D90002E84BDE8F0812DE9F04105460C464FF048
:102DA0000008002600275E4885420ED0B5F1804F0E
:102DB0000BD06048854208D05F48854205D05F4807
:102DC000854202D05748854200D105E040F2C1114A
:102DD000AFF23430FDF765FA208870B120881028F2
:102DE0000BD02088202808D02088302805D02088C3
:102DF000602802D02088702800D105E04FF4E171EE
:102E0000AFF26430FDF74DFA608810B16088012898
:102E100000D105E040F2C311AFF27C30FDF741FA7A
:102E2000208910B12089022800D105E04FF4E27119
:102E3000AFF29430FDF735FA288C4FF6FF61084069
:102E400028842E8CAF88B5F81C804FF68F7008EA66
:102E500000084FF6FC7008EA0008208840EA0808DD
:102E60004FF6FF50064020894FF6FF7101EA00201F
:102E70000643608801EA002006432948854202D0C3
:102E80002848854264D1A08810B1A088042800D1C8
:102E900005E04FF4F071AFF2F830FDF702FA608907
:102EA00010B16089082800D105E040F2E111AFF2CD
:102EB0001040FDF7F6F9E089B0F5007F01D0E08918
:102EC00000B905E04FF4F171AFF22C40FDF7E9F9DC
:102ED000A089B0F5807F01D0A08900B905E040F25B
:102EE000E311AFF24440FDF7DCF94FF2FF7006400A
:102EF00060894FF6FF7101EA002006434FF6FF306C
:102F00000640A08801EA002006434EF6FF70074005
:102F10004DF6FF700740A08901EA0010074313E057
:102F2000002C0140003401400040014000440140B9
:102F3000004801400004004000080040000C004030
:102F4000004C014000180040E08901EA00100743EE
:102F5000AF80A5F81C80E088A8872E84BDE8F081AA
:102F60002DE9F04104460D4600270026B046F848FA
:102F700084420ED0B4F1804F0BD0F648844208D082
:102F8000F548844205D0F548844202D0F448844292
:102F900000D105E04FF40471AFF2FC40FDF781F978
:102FA000288870B1288810280BD02888202808D0BD
:102FB0002888302805D02888602802D028887028E2
:102FC00000D105E040F21121AFF22C50FDF769F974
:102FD000688810B16888012800D105E040F212210C
:102FE000AFF24450FDF75DF9288910B12889022815
:102FF00000D105E040F21321AFF25C50FDF751F92A
:10300000208C4EF6FF7108402084268CB4F8048092
:10301000A78B48F6FF7007404FF6FF40074028880F
:103020004FF6FF7101EA002007434DF6FF7006409E
:10303000288901EA00300643688801EA0030064327
:10304000C348844202D0C648844217D1A889B0F54B
:10305000807F01D0A88900B905E04FF40C71AFF270
:10306000C050FDF71EF94BF6FF7008EA0008A8896A
:103070004FF6FF7101EA801040EA0808A4F80480C6
:10308000A783E888A4F840002684BDE8F08170B5E5
:1030900004460D46AE4884420ED0B4F1804F0BD0AA
:1030A000AC48844208D0AC48844205D0AB48844246
:1030B00002D0AB48844200D105E040F67611AFF271
:1030C0002060FDF7EEF82DB1042D03D0082D01D0BE
:1030D0000C2D00D105E040F67711AFF23C60FDF712
:1030E000E0F8A08B4FF2FF310840A083A08B4FF691
:1030F000FF7101EA05210843A08370BDF0B50C46BD
:103100001546002200210026078C4EF6FF7C07EAB8
:103110000C070784828B018C4FF6FF7707EA043691
:1031200040F6FF473A404FF6FF7707EA05273A4354
:103130004FF6FF7707EA03373A43854FB8420ED080
:10314000874FB8420BD0B0F1804F08D0814FB842C2
:1031500005D0814FB84202D0804FB84206D14DF61B
:10316000FF77394046F48057394305E047F6FF576B
:10317000394044F48057394382830184F0BD70B5EF
:1031800004460D46724884420ED0B4F1804F0BD0F5
:103190007048844208D07048844205D06F48844209
:1031A00002D06F48844200D105E04FF41661AFF2BF
:1031B0001070FDF776F82DB1042D03D0082D01D045
:1031C0000C2D00D105E040F66111AFF22C70FDF737
:1031D00068F8A08B4FF6F3710840A083A08B2843BA
:1031E000A08370BDF0B50C461546002200210026D4
:1031F000078C4FF6FF6C07EA0C070784828B018C63
:103200004FF6FF7707EA04264FF60C773A404FF661
:10321000FF7707EA03172F433A434D4FB8420ED0CA
:103220004F4FB8420BD0B0F1804F08D0494FB84251
:1032300005D0494FB84202D0484FB84206D14FF6A8
:10324000FF57394046F48077394305E04FF2FF5786
:10325000394044F48077394382830184F0BD70B5EE
:1032600004460D463A48844217D0B4F1804F14D03A
:103270003848844211D0384884420ED037488442BE
:103280000BD03748844208D03648844205D03648AF
:10329000844202D03548844200D105E040F64A110C
:1032A000AFF60400FCF7FDFF2DB1042D03D0082D6F
:1032B00001D00C2D00D105E040F64B11AFF62000F7
:1032C000FCF7EFFF208B4FF2FF3108402083208B6B
:1032D0004FF6FF7101EA05210843208370BDF0B568
:1032E0000C461546002200210026078C4FF6EF7C85
:1032F00007EA0C070784028B018C4FF6FF7707EA79
:10330000041640F6FF473A404FF6FF7707EA0337C7
:103310003A434FF6FF7707EA05273A430C4FB84286
:103320000ED00F4FB8420BD0B0F1804F08D0094FEC
:10333000B84205D0084FB84202D0084FB84217D162
:103340004FF6DF77394046F01007394316E00000AA
:10335000002C01400004004000080040000C004028
:1033600000340140004C0140001800400040014082
:103370004FF65F77394044F01007394302830184E8
:10338000F0BD70B504460D46FB48844229D0B4F127
:10339000804F26D0F948844223D0F948844220D077
:1033A000F84884421DD0F84884421AD0F748844235
:1033B00017D0F748844214D0F648844211D0F6481A
:1033C00084420ED0F54884420BD0F548844208D0A0
:1033D000F448844205D0F448844202D0F348844241
:1033E00000D105E040F63411AFF64C10FCF759FF60
:1033F0002DB1042D03D0082D01D00C2D00D105E0F6
:1034000040F63511AFF66810FCF74BFF208B4FF6F6
:10341000F37108402083208B2843208370BDF0B5D2
:103420000C46154600220021068C4FF6FE773E40E2
:103430000684028B018C4FF60C7632407E1C06EA25
:1034400003162E433243CC4EB0420ED0CE4EB04285
:103450000BD0B0F1804F08D0C84EB04205D0C84E56
:10346000B04202D0C74EB04206D14FF6FD76314091
:1034700044F00106314305E04FF6F576314044F063
:103480000106314302830184F0BD70B504460D4648
:10349000288840B12888042805D02888082802D028
:1034A00028880C2800D105E040F24E21AFF610200C
:1034B000FCF7F7FEA888012805D0A888022802D0CA
:1034C000A888032800D105E040F24F21AFF6302054
:1034D000FCF7E7FEE88840B1E888042805D0E888D2
:1034E000082802D0E8880C2800D105E04FF41471B8
:1034F000AFF65420FCF7D5FE28890F2800DC05E044
:1035000040F25121AFF66820FCF7CBFE9A48844286
:103510000ED09D4884420BD0B4F1804F08D097481C
:10352000844205D09648844202D0964884420CD109
:10353000688810B16888022800D115E040F2562151
:10354000AFF6A420FCF7ADFE0EE0688828B16888CD
:10355000022802D068880A2800D105E040F25A21EA
:10356000AFF6C420FCF79DFE2888E0BB8248844269
:1035700029D0B4F1804F26D08048844223D080489F
:10358000844220D07F4884421DD07F4884421AD094
:103590007E48844217D07E48844214D07D488442BD
:1035A00011D07D4884420ED07C4884420BD07C48A8
:1035B000844208D07B48844205D07B48844202D0B4
:1035C0007A48844200D105E040F25E21AFF6303007
:1035D000FCF767FE2B89AA8869882046FFF71FFF42
:1035E000E988204600E002E0FFF7CBFE79E028887A
:1035F00004282CD16048844217D0B4F1804F14D0F5
:103600005E48844211D05E4884420ED05D488442B8
:103610000BD05D48844208D05C48844205D05E48A7
:10362000844202D05F48844200D105E04FF41A7111
:10363000AFF69430FCF735FE2B89AA8869882046BE
:10364000FFF74DFEE9882046FFF709FE49E028888C
:10365000082823D1484884420ED0B4F1804F0BD0C3
:103660004648844208D04648844205D045488442B2
:1036700002D04548844200D105E040F27221AFF605
:10368000E030FCF70EFE2B89AA8869882046FFF7F8
:10369000A9FDE9882046FFF772FD22E03648844202
:1036A0000ED0B4F1804F0BD03448844208D0344857
:1036B000844205D03348844202D03348844200D14A
:1036C00005E04FF41F71AFF62840FCF7EAFD2B89A7
:1036D000AA8869882046FFF711FDE9882046FFF790
:1036E000D6FC70BD2DE9F04105460C4600260127A9
:1036F0002148854217D0B5F1804F14D01F4885422C
:1037000011D01F4885420ED01E4885420BD01E485E
:10371000854208D01D48854205D01F48854202D009
:103720002048854200D105E040F29321AFF6904059
:10373000FCF7B7FD608808B9022600E00026A088E3
:10374000012801D1022700E00127208880BB2389BE
:10375000A28861882846FFF762FEE1882846FFF7C5
:1037600010FE23893A4631462846FFF7B8FDE18826
:103770002846FFF774FD30E0002C014000040040B3
:1037800000080040000C004000340140004C0140A3
:10379000005001400054014000180040001C00404F
:1037A000002000400040014000440140004801402A
:1037B000FFE72389A28861882846FFF790FDE1880A
:1037C0002846FFF74CFD23893A4631462846FFF745
:1037D00026FEE1882846FFF7D4FDBDE8F08170B5EC
:1037E00005460C46FE4885420BD0FE48854208D06F
:1037F000FD48854205D0FD48854202D0FC488542FF
:1038000000D105E040F2CB21AFF66C50FCF749FD4A
:103810002088B0F5006F01D0208800B905E04FF492
:103820003371AFF68450FCF73CFD6088B0F5806FD3
:1038300001D0608800B905E040F2CD21AFF6A0507C
:10384000FCF72FFDA08858B1A088B0F5807F07D085
:10385000A088B0F5007F03D0A088B0F5407F00D1EC
:1038600005E040F2CE21AFF6C850FCF71AFD2089E2
:10387000B0F5805F01D0208900B905E040F2CF218A
:10388000AFF6E450FCF70DFD608918B16089B0F522
:10389000005F00D105E04FF43471AFF6FC50FCF747
:1038A00000FDA089B0F5804F01D0A08900B905E0E6
:1038B00040F2D121AFF61860FCF7F3FC2088618854
:1038C0000843A1880843E1880843218908436189A6
:1038D0000843A1890843A5F8440070BD4FF6FF7165
:1038E000818000210180C1804180017270470021E8
:1038F000018041808180C180018141818181C181BC
:103900007047002101804180012181800021C18018
:10391000018170470021018041808180C180018147
:1039200041818181704770B504460D46AC488442A0
:103930002FD0B4F1804F2CD0AE48844229D0AE486D
:10394000844226D0AD48844223D0AD48844220D062
:10395000AC4884421DD0A34884421AD0AA4884426D
:1039600017D0AA48844214D0A948844211D0A9484B
:1039700084420ED0A84884420BD0A848844208D084
:103980009948844205D09948844202D0984884429C
:1039900000D105E040F22931AFF6FC60FCF781FC74
:1039A0000DB1012D00D105E040F22A31AFF61070C3
:1039B000FCF777FC25B1208840F00100208004E06E
:1039C00020884FF6FE710840208070BD70B5044617
:1039D0000D46834884420BD08248844208D08248F6
:1039E000844205D08148844202D08148844200D17B
:1039F00005E040F24231AFF65870FCF752FC0DB1D1
:103A0000012D00D105E040F24331AFF66C70FCF7B8
:103A100048FC35B1B4F8440040F40040A4F8440038
:103A200005E0B4F84400C0F30E00A4F8440070BDF3
:103A300070B504460D461646694884422FD0B4F14D
:103A4000804F2CD06B48844229D06B48844226D0CA
:103A50006A48844223D06A48844220D0694884421C
:103A60001DD0604884421AD06748844217D0674806
:103A7000844214D06648844211D0664884420ED0F5
:103A8000654884420BD06548844208D05648844239
:103A900005D05648844202D05548844200D104E003
:103AA00040F26B315E48FCF7FCFB05F47F4008B93F
:103AB00005B104E04FF45B715948FCF7F2FB0EB11D
:103AC000012E00D104E040F26D315548FCF7E9FBCE
:103AD0001EB1A0892843A08102E0A089A843A0814B
:103AE00070BD70B504460D463D4884422FD0B4F1F8
:103AF000804F2CD03F48844229D03F48844226D072
:103B00003E48844223D03E48844220D03D488442EF
:103B10001DD0344884421AD03B48844217D03B48D9
:103B2000844214D03A48844211D03A4884420ED09C
:103B3000394884420BD03948844208D02A4884420C
:103B400005D02A48844202D02948844200D104E0AA
:103B50004FF464713248FCF7A4FB05F47F4008B9C8
:103B600005B104E040F291312D48FCF79AFBA582A3
:103B700070BD70B506460C4615461948864217D0EA
:103B8000B6F1804F14D01B48864211D01A488642A5
:103B90000ED01A4886420BD01248864208D01248EE
:103BA000864205D01148864202D01148864200D193
:103BB00004E04FF46B711A48FCF773FB94B3012CCB
:103BC00045D0022C43D0032C41D0042C3FD0052CEF
:103BD0003DD0062C3BD0072C39D0082C37D022E022
:103BE000002C0140003401400040014000440140ED
:103BF000004801400004004000080040000C004064
:103C00000010004000140040004C014000500140F2
:103C10000054014000180040001C004000200040FB
:103C2000A02A000813E0092C11D00A2C0FD00B2C6D
:103C30000DD00C2C0BD00D2C09D00E2C07D00F2C36
:103C400005D0102C03D0112C01D0122C00D104E08F
:103C500040F2AD31FB48FCF724FB95B3B5F5807F0E
:103C60002FD0B5F5007F2CD0B5F5407F29D0B5F524
:103C7000806F26D0B5F5A06F23D0B5F5C06F20D0EA
:103C8000B5F5E06F1DD0B5F5006F1AD0B5F5106F22
:103C900017D0B5F5206F14D0B5F5306F11D0B5F54C
:103CA000406F0ED0B5F5506F0BD0B5F5606F08D0F2
:103CB000B5F5706F05D0B5F5805F02D0B5F5885FBA
:103CC00000D104E040F2AE31DE48FCF7EAFA44EA03
:103CD0000500A6F8480070BD70B504460D461646AE
:103CE000D94884421DD0B4F1804F1AD0D7488442BD
:103CF00017D0D748844214D0D648844211D0D64831
:103D000084420ED0D54884420BD0D548844208D096
:103D1000D448844205D0D448844202D0D348844257
:103D200000D104E040F2C731C648FCF7BAFA48F2C5
:103D3000FF00284008B905B104E04FF47271C14892
:103D4000FCF7AFFA0EB1012E00D104E040F2C93108
:103D5000BC48FCF7A6FA1EB1A0892843A08102E066
:103D6000A089A843A08170BD10B50446B64884421E
:103D700017D0B4F1804F14D0B448844211D0B44865
:103D800084420ED0B34884420BD0B548844208D058
:103D9000B748844205D0B748844202D0B148844233
:103DA00000D104E04FF47871A648FCF77AFA208934
:103DB0004FF6F8710840208110BD70B504460D46DD
:103DC0000026A148844217D0B4F1804F14D09F48F8
:103DD000844211D09E4884420ED09E4884420BD02B
:103DE0009F48844208D0A248844205D0A14884421A
:103DF00002D09C48844200D104E040F2D141914875
:103E0000FCF74FFA6DB1102D0BD0202D09D0302DBD
:103E100007D0402D05D0502D03D0602D01D0702D3E
:103E200000D104E040F2D2418648FCF73AFA2689F4
:103E30004FF68F7006402E43268170BD70B5044644
:103E40000D468148844217D0B4F1804F14D07F488A
:103E5000844211D07E4884420ED07E4884420BD0EA
:103E60007F48844208D08248844205D081488442F9
:103E700002D07C48844200D104E040F2F331714822
:103E8000FCF70FFA2DB1102D03D0202D01D0302DCD
:103E900000D104E04FF47D716A48FCF702FA29462C
:103EA0002046FFF78AFF208940F00700208170BD7F
:103EB0002DE9F04104460D4616461F4662488442ED
:103EC00017D0B4F1804F14D06048844211D06048BC
:103ED00084420ED05F4884420BD06148844208D0AF
:103EE0006348844205D06348844202D05D488442DE
:103EF00000D104E040F20F415248FCF7D2F9502DB6
:103F000003D0602D01D0402D00D104E04FF4826138
:103F10004C48FCF7C6F90EB1022E00D104E040F285
:103F200011414848FCF7BDF90F2F00DC04E040F2D6
:103F300012414448FCF7B5F9602D06D13B460122F9
:103F400031462046FFF7CBF905E03B4601223146DA
:103F50002046FFF764FA29462046FFF72EFF208906
:103F600040F007002081BDE8F0812DE9F0410446D2
:103F70000D4616461F464FF00008334884420ED0C7
:103F8000B4F1804F0BD03148844208D0304884428D
:103F900005D03048844202D03148844200D104E048
:103FA00040F281412748FCF77CF945B1B5F5805FC7
:103FB00005D0B5F5005F02D0B5F5405F00D104E053
:103FC00040F282411F48FCF76CF9B6F5004F00D073
:103FD00006B904E040F283411A48FCF762F90F2F5A
:103FE00000DC04E040F284411648FCF75AF9B4F8CA
:103FF000088008F0FF084FF6FF7000EA0720304302
:10400000284340EA0808A4F80880BDE8F0812DE9BB
:10401000F04104460D461746984600260A48844259
:104020000ED0B4F1804F0BD00848844208D0084825
:10403000844205D00748844202D0094884421BD1FB
:104040001FE00000A02A0008002C014000040040EE
:1040500000080040000C0040001000400014004028
:10406000003401400040014000440140004801404C
:10407000004C0140001800404FF48761FE48FCF7F7
:1040800010F945B1B5F5805F05D0B5F5005F02D0F8
:10409000B5F5405F00D104E040F23941F648FCF745
:1040A00000F9B7F5004F00D007B904E040F23A41FB
:1040B000F148FCF7F6F8B8F10F0F00DC04E040F22D
:1040C0003B41ED48FCF7EDF843463A462946204689
:1040D000FFF74BFF26894FF6F870064046F00706BB
:1040E0004FF68F70064046F070062681BDE8F081DD
:1040F0002DE9F04104460D4616461F46DF4884422E
:104100000ED0B4F1804F0BD0DD48844208D0DD489A
:10411000844205D0DC48844202D0DC48844200D18D
:1041200004E040F26141D448FCF7BBF845B1B5F575
:10413000805F05D0B5F5005F02D0B5F5405F00D1D6
:1041400004E040F26241CC48FCF7ABF8B6F5004F12
:1041500000D006B904E040F26341C748FCF7A1F87B
:104160000F2F00DC04E040F26441C348FCF799F8EB
:104170003B46324629462046FFF7F7FE208940F4A9
:1041800080402081BDE8F08170B504460E4615469A
:10419000BA4884422FD0B4F1804F2CD0B848844222
:1041A00029D0B848844226D0B748844223D0B848A2
:1041B000844220D0B74884421DD0B44884421AD0EB
:1041C000B548844217D0B548844214D0B4488442DC
:1041D00011D0B44884420ED0B34884420BD0B348C7
:1041E000844208D0B248844205D0B248844202D00A
:1041F000B148844200D104E040F29B419E48FCF764
:1042000050F80DB1012D00D104E040F29C419A48D4
:10421000FCF747F82685A58270BD70B504460D46AB
:104220000026964884420ED0B4F1804F0BD09448BB
:10423000844208D09348844205D09348844202D0F7
:104240009248844200D104E040F2B3418A48FCF72E
:1042500028F83DB1102D05D0202D03D0402D01D0E0
:10426000602D00D104E040F2B4418348FCF719F816
:1042700026884FF68F7006402E43268070BD2DE9AC
:10428000F04704460D4616461F464FF00008C1464B
:10429000C2467A48844211D0B4F1804F0ED078489B
:1042A00084420BD07748844208D07748844205D0B6
:1042B0007648844202D07E48844200D104E04FF424
:1042C0009F616D48FBF7EDFF012D03D0022D01D05A
:1042D000032D00D104E040F2F9416748FBF7E1FF0C
:1042E0000EB1022E00D104E040F2FA416248FBF721
:1042F000D8FF0FB1022F00D104E040F2FB415E482D
:10430000FBF7CFFFB4F80880B4F81890B4F820A0F9
:104310004FF6F87008EA000848EA05084FF6FC4036
:1043200009EA000940F2011049EA00094FF6DD7080
:104330000AEA000A4FF6FF7000EA0710304340EA2D
:104340000A0AA4F80880A4F81890A4F820A0BDE8F0
:10435000F08770B504460D4600264848844229D0AF
:10436000B4F1804F26D04648844223D04548844249
:1043700020D0454884421DD0444884421AD0464843
:10438000844217D04548844214D04548844211D015
:10439000444884420ED0444884420BD0434884426F
:1043A00008D04348844205D04248844202D0424863
:1043B000844200D104E040F227512F48FBF771FFFF
:1043C000502D01D0402D00D104E04FF4A5612A48C2
:1043D000FBF767FF268B4FF68F7006402E43268330
:1043E00070BD70B504460D4600262448844217D09F
:1043F000B4F1804F14D02248844211D02148844225
:104400000ED0214884420BD02048844208D0224854
:10441000844205D02348844202D02548844200D1FA
:1044200004E040F23F511448FBF73BFF502D01D010
:10443000402D00D104E04FF4A8610F48FBF731FF95
:10444000268B48F6FF7006404FF6FF7000EA052005
:104450000643268370BD70B504460D460026074806
:10446000844231D0B4F1804F2ED0054884422BD005
:104470000448844228D021E0A02A0008002C0140F2
:104480000004004000080040000C004000340140DF
:104490000010004000140040004C0140005001405A
:1044A0000054014000180040001C00400020004063
:1044B000004001400044014000480140FD48844262
:1044C00002D0FD48844200D104E040F25751FB483D
:1044D000FBF7E7FE502D01D0402D00D104E04FF452
:1044E000AB61F648FBF7DDFEA68B4FF68F700640FA
:1044F0002E43A68370BD70B504460D460026F048D5
:1045000084420ED0B4F1804F0BD0EE48844208D0E4
:10451000ED48844205D0E748844202D0E648844210
:1045200000D104E040F26F51E448FBF7BAFE502D91
:1045300001D0402D00D104E04FF4AE61DF48FBF71D
:10454000B0FEA68B48F6FF7006404FF6FF7000EAFB
:1045500005200643A68370BD70B504460D46D848B5
:1045600084422FD0B4F1804F2CD0D648844229D039
:10457000D548844226D0CF48844223D0D3488442B1
:1045800020D0D34884421DD0CB4884421AD0D14891
:10459000844217D0D048844214D0D048844211D0ED
:1045A000CF4884420ED0CF4884420BD0CE488442BC
:1045B00008D0CE48844205D0CD48844202D0CD48B0
:1045C000844200D104E040F28451BC48FBF769FE0C
:1045D0000DB1012D00D104E040F28551B748FBF741
:1045E00060FE25B1208840F08000208004E0208813
:1045F0004FF67F710840208070BD70B504460D46AF
:10460000AF4884420BD0AC48844208D0B7488442BB
:1046100005D0B748844202D0B648844200D104E0B5
:1046200040F29C51A548FBF73CFE0DB1012D00D195
:1046300004E040F29D51A148FBF733FE25B1A0886C
:1046400040F00400A08004E0A0884FF6FB71084011
:10465000A08070BD70B504460D469948844217D0BD
:10466000B4F1804F14D09748844211D096488442C8
:104670000ED0904884420BD08F48844208D09B488B
:10468000844205D09A48844202D09A48844200D19C
:1046900004E040F2B5518948FBF703FE0DB1012D4E
:1046A00000D104E040F2B6518448FBF7FAFD25B191
:1046B000A08840F00800A08004E0A0884FF6F771C1
:1046C0000840A08070BD70B504460D467C48844209
:1046D00011D0B4F1804F0ED07A4884420BD07A4882
:1046E000844208D07348844205D07348844202D083
:1046F0007E48844200D104E040F2CE516F48FBF77F
:10470000D0FD0DB1012D00D104E040F2CF516B4836
:10471000FBF7C7FD25B1A08840F00100A08004E0B0
:10472000A0884FF6FE710840A08070BD70B50446A9
:104730000D4600266248844229D0B4F1804F26D02D
:104740006048844223D06048844220D05948844243
:104750001DD0594884421AD05E48844217D05E4822
:10476000844214D05D48844211D05D4884420ED00A
:104770005C4884420BD05C48844208D05B48844249
:1047800005D05B48844202D05A48844200D104E0FC
:1047900040F2E9514948FBF784FD082D00D005B9E6
:1047A00004E040F2EA514548FBF77BFD268B4FF6CB
:1047B000F77006402E43268370BD70B504460D4643
:1047C00000263F48844217D0B4F1804F14D03D48B2
:1047D000844211D03C4884420ED0364884420BD0EB
:1047E0003548844208D03B48844205D03C48844246
:1047F00002D03E48844200D104E040F202612F48DA
:10480000FBF74FFD082D00D005B904E040F203612D
:104810002A48FBF746FD268B4FF2FF7006404FF605
:10482000FF7000EA05200643268370BD70B504467C
:104830000D460026224884420ED0B4F1804F0BD0A2
:104840002048844208D02048844205D01948844238
:1048500002D01948844200D104E040F21A6117489E
:10486000FBF71FFD082D00D005B904E040F21B61E5
:104870001248FBF716FDA68B4FF6F77006402E4345
:10488000A68370BD70B504460D4600260C488442D0
:104890000ED0B4F1804F0BD00A48844208D00A48A9
:1048A000844205D00348844202D00348844223D185
:1048B00027E00000000C004000340140A02A00085E
:1048C000002C01400004004000080040001000409F
:1048D00000140040004C01400050014000540140D1
:1048E00000180040001C0040002000400040014033
:1048F000004401400048014040F23261F748FBF7B4
:10490000D0FC082D00D005B904E040F23361F34833
:10491000FBF7C7FCA68B4FF2FF7006404FF6FF7007
:1049200000EA05200643A68370BD70B504460D4617
:104930000026EB48844229D0B4F1804F26D0E948C4
:10494000844223D0E848844220D0E84884421DD0E5
:10495000E74884421AD0E748844217D0E6488442A8
:1049600014D0E648844211D0E54884420ED0E54890
:1049700084420BD0E448844208D0E448844205D005
:10498000E348844202D0E348844200D104E040F28C
:104990004A61D248FBF785FC042D00D005B904E03C
:1049A00040F24B61CD48FBF77CFC268B4FF6FB7049
:1049B00006402E43268370BD70B504460D46002682
:1049C000C748844217D0B4F1804F14D0C548844200
:1049D00011D0C54884420ED0C44884420BD0C4488C
:1049E000844208D0C348844205D0C548844202D0DE
:1049F000C648844200D104E040F26461B748FBF746
:104A000050FC042D00D005B904E040F26561B348C4
:104A1000FBF747FC268B4FF6FF3006404FF6FF7042
:104A200000EA05200643268370BD70B504460D4696
:104A30000026AB4884420ED0B4F1804F0BD0A94879
:104A4000844208D0A848844205D0A848844202D0B5
:104A5000A748844200D104E040F27D619F48FBF703
:104A600020FC042D00D005B904E040F27E619B4893
:104A7000FBF717FCA68B4FF6FB7006402E43A68370
:104A800070BD70B504460D460026954884420ED090
:104A9000B4F1804F0BD09348844208D092488442AE
:104AA00005D09248844202D09148844200D104E06B
:104AB00040F296618948FBF7F4FB042D00D005B95C
:104AC00004E040F297618548FBF7EBFBA68B4FF6BD
:104AD000FF3006404FF6FF7000EA05200643A6832C
:104AE00070BD70B504460D4600267D4884420ED048
:104AF000B4F1804F0BD07B48844208D07A4884427E
:104B000005D07A48844202D07948844200D104E03A
:104B100040F2AF617148FBF7C4FB802D00D005B9AE
:104B200004E04FF4D6616D48FBF7BBFB268B4FF6D4
:104B30007F7006402E43268370BD70B504460D4637
:104B40000026674884420ED0B4F1804F0BD06548F0
:104B5000844208D06448844205D06448844202D02C
:104B60006348844200D104E040F2C9615B48FBF72E
:104B700098FB802D00D005B904E040F2CA61574887
:104B8000FBF78FFB268BC6F30E064FF6FF7000EA8D
:104B900005200643268370BD70B504460D460026E9
:104BA0004F4884420ED0B4F1804F0BD04D48844220
:104BB00008D04D48844205D04C48844202D04C482D
:104BC000844200D104E040F2E1614448FBF769FB14
:104BD000802D00D005B904E040F2E2613F48FBF7C8
:104BE00060FBA68B4FF67F7006402E43A68370BDF8
:104BF00070B504460D460026394884420ED0B4F103
:104C0000804F0BD03748844208D03748844205D0C3
:104C10003648844202D03648844200D104E040F253
:104C2000F9612E48FBF73DFB802D00D005B904E06B
:104C300040F2FA612948FBF734FBA68BC6F30E0657
:104C40004FF6FF7000EA05200643A68370BD70B5DD
:104C500004460D4600262248844229D0B4F1804FF4
:104C600026D02048844223D01F48844220D01F48A9
:104C700084421DD01E4884421AD01E48844217D058
:104C80001D48844214D01D48844211D01C488442DF
:104C90000ED01C4884420BD01B48844208D01B48CD
:104CA000844205D01A48844202D01A48844200D176
:104CB00004E040F211710948FBF7F3FA0DB1022D3F
:104CC00000D104E040F212710448FBF7EAFA268CA6
:104CD0004FF6FD7006402E43268470BDA02A0008C2
:104CE000002C01400004004000080040000C00407F
:104CF00000340140004C014000500140005401408C
:104D000000180040001C004000200040004001400E
:104D1000004401400048014070B504460D4600269D
:104D2000FB4884420BD0FB48844208D0FA488442B6
:104D300005D0FA48844202D0F948844200D104E008
:104D40004FF4E561F748FBF7ACFA0DB1082D00D13F
:104D500004E040F22971F348FBF7A3FA268C4FF6E2
:104D6000F77006402E43268470BD70B504460D468C
:104D70000026E748844217D0B4F1804F14D0EA48A7
:104D8000844211D0E94884420ED0E94884420BD0D5
:104D9000E048844208D0E748844205D0E64884428F
:104DA00002D0DD48844200D104E04FF4E861DD48E0
:104DB000FBF777FA0DB1022D00D104E040F241710A
:104DC000D848FBF76EFA268C4FF6DF7006404FF698
:104DD000FF7000EA05100643268470BD70B50446D6
:104DE0000D460026CA48844202D0CA48844200D1F7
:104DF00004E040F25771CB48FBF753FA0DB1082D90
:104E000000D104E04FF4EB61C648FBF74AFA268C68
:104E10004FF67F7006404FF6FF7000EA051006431C
:104E2000268470BD70B504460D460026B8488442FD
:104E30000ED0B4F1804F0BD0BB48844208D0BB48A1
:104E4000844205D0BA48844202D0B248844200D19C
:104E500004E040F26F71B348FBF723FA0DB1022D65
:104E600000D104E04FF4EE61AE48FBF71AFA268C4D
:104E70004FF6FF5006404FF6FF7000EA052006434C
:104E8000268470BD70B504460D460026A0488442B5
:104E900002D0A048844200D104E040F28771A148CA
:104EA000FBF7FFF90DB1082D00D104E04FF4F161DB
:104EB0009C48FBF7F6F9268C4FF2FF7006404FF640
:104EC000FF7000EA05200643268470BD70B50446D5
:104ED0000D4600268E4884420ED0B4F1804F0BD090
:104EE0009148844208D09148844205D09048844239
:104EF00002D08848844200D104E040F29F71894882
:104F0000FBF7CFF90DB1022D00D104E04FF4F461AD
:104F10008448FBF7C6F9268C4DF6FF7006404FF625
:104F2000FF7000EA05300643268470BD2DE9F0418C
:104F300004460D46164600277548844229D0B4F130
:104F4000804F26D07848844223D07848844220D0AD
:104F5000774884421DD06F4884421AD075488442F5
:104F600017D07648844214D07548844211D07248D4
:104F700084420ED0734884420BD07348844208D0D8
:104F80006548844205D06548844202D06448844222
:104F900000D104E040F2BB716248FBF782F92DB109
:104FA000042D03D0082D01D00C2D00D104E040F2D7
:104FB000BC715C48FBF775F9012E00D006B904E01E
:104FC00040F2BD715748FBF76CF90120A84087B249
:104FD000208CB8432084208C06FA05F189B208435E
:104FE0002084BDE8F0812DE9F04104460D461646C7
:104FF0000027474884420BD04648844208D04648A0
:10500000844205D04548844202D04548844200D1BC
:1050100004E040F2D9714348FBF743F91DB1042D78
:1050200001D0082D00D104E040F2DA713D48FBF7D1
:1050300038F9042E00D006B904E040F2DB7139489B
:10504000FBF72FF90420A84087B2208CB8432084B6
:10505000208C06FA05F189B208432084BDE8F0816E
:105060002DE9F04104460F4615460026B046284873
:10507000844229D0B4F1804F26D02B48844223D0DB
:105080002A48844220D02A4884421DD021488442A4
:105090001AD02848844217D02848844214D028487F
:1050A000844211D0244884420ED0264884420BD03A
:1050B0002548844208D01848844205D017488442C5
:1050C00002D01748844200D104E040F6030115489D
:1050D000FBF7E7F82FB1042F03D0082F01D00C2FD6
:1050E00000D104E040F604010E48FBF7DAF86DB198
:1050F000102D0BD0202D09D0302D07D0602D05D0DC
:10510000702D03D0502D01D0402D1FD123E0000081
:10511000002C0140003401400040014000440140A7
:1051200000480140A02A0008000400400008004098
:10513000000C0040004C01400018004000500140AD
:1051400000540140001C00400020004040F60501D2
:10515000FA48FBF7A6F8264618360120B8401FFA91
:1051600080F8208C20EA080020840FB1082F09D194
:1051700006EB6706306820F0700030603068284326
:1051800030600EE0381FC0F34E000644306820F453
:10519000E040306030684FF6FF7101EA05210843B6
:1051A0003060BDE8F08170B504460D46E4488442A5
:1051B0002FD0B4F1804F2CD0E248844229D0E2486D
:1051C000844226D0E148844223D0E148844220D062
:1051D000E04884421DD0E04884421AD0DF4884422F
:1051E00017D0DF48844214D0DE48844211D0DE4814
:1051F00084420ED0DD4884420BD0DD48844208D082
:10520000DC48844205D0DC48844202D0DB4884423A
:1052100000D104E040F62F01C848FBF742F80DB179
:10522000012D00D104E04FF40361C448FBF739F8C5
:1052300025B1208840F00200208004E020884FF64D
:10524000FD710840208070BD70B504460D46BC4815
:1052500084422FD0B4F1804F2CD0BA48844229D058
:10526000B948844226D0B948844223D0B848844201
:1052700020D0B84884421DD0B74884421AD0B748DD
:10528000844217D0B648844214D0B648844211D024
:10529000B54884420ED0B54884420BD0B44884420D
:1052A00008D0B448844205D0B348844202D0B34801
:1052B000844200D104E040F64B01A048FAF7F1FF28
:1052C0000DB1012D00D104E040F64C019B48FAF7E6
:1052D000E8FF25B1208840F00400208004E0208809
:1052E0004FF6FB710840208070BD70B504460D4636
:1052F0009348844217D0B4F1804F14D0914884422F
:1053000011D0914884420ED0904884420BD09248EC
:10531000844208D09148844205D09348844202D008
:105320009448844200D104E040F663018348FAF7D0
:10533000B8FF0DB1012D00D104E040F664017F48B3
:10534000FAF7AFFF25B1A08840F08000A08004E00C
:10535000A0884FF67F710840A08070BD70B50446EC
:105360000D46774884422FD0B4F1804F2CD0754839
:10537000844229D07448844226D07448844223D081
:105380007348844220D0734884421DD072488442BE
:105390001AD07248844217D07148844214D07148A0
:1053A000844211D0704884420ED0704884420BD0A1
:1053B0006F48844208D06F48844205D06E488442CA
:1053C00002D06E48844200D104E040F67D015B4883
:1053D000FAF767FF082D00D005B904E040F67E011A
:1053E0005648FAF75EFF20884FF6F7710840208094
:1053F00020882843208070BD70B504460D46504873
:1054000084421DD0B4F1804F1AD04E48844217D048
:105410004D48844214D04D48844211D04C488442B7
:105420000ED04C4884420BD04B48844208D04B48A5
:10543000844205D04C48844202D04E48844200D178
:1054400004E040F69D013D48FAF72BFF6DB1102DA9
:105450000BD0202D09D0302D07D0402D05D0502D58
:1054600003D0602D01D0702D00D104E040F69E01E4
:105470003248FAF716FFA0884FF68F710840A080D7
:10548000A0882843A08070BD70B504460D462C4806
:10549000844217D0B4F1804F14D02A48844211D0EE
:1054A000294884420ED0294884420BD02A4884429D
:1054B00008D02A48844205D02B48844202D02D4887
:1054C000844200D104E040F6B4011C48FAF7E9FE3A
:1054D000042D05D0052D03D0062D01D0072D00D1B8
:1054E00004E040F6B5011548FAF7DBFE20894FF6D7
:1054F000F8710840208120892843208170BD70B553
:1055000004460D460E48844217D0B4F1804F14D0A3
:105510000C48844211D00C4884420ED00B4884427F
:105520000BD00D48844208D00C48844205D00E4868
:10553000844202D00F48844222D126E0A02A0008EB
:10554000002C01400004004000080040000C004016
:10555000001000400014004000340140004C0140A5
:10556000005001400054014000180040001C004061
:10557000002000400040014000440140004801403C
:1055800040F6C901F648FAF78CFE802D00D005B927
:1055900004E040F6CA01F248FAF783FE20894FF68C
:1055A0007F710840208120892843208170BD70B51B
:1055B00004460D46EB4884422FD0B4F1804F2CD0E6
:1055C000E948844229D0E948844226D0E848844208
:1055D00023D0E848844220D0E74884421DD0E748E1
:1055E00084421AD0E648844217D0E648844214D058
:1055F000E548844211D0E54884420ED0E448844214
:105600000BD0E448844208D0E348844205D0E34804
:10561000844202D0E248844200D104E040F6DB013B
:10562000CF48FAF73EFEA58470BD70B504460D461E
:10563000CC4884422FD0B4F1804F2CD0CA48844249
:1056400029D0CA48844226D0C948844223D0C948B8
:10565000844220D0C84884421DD0C84884421AD011
:10566000C748844217D0C748844214D0C6488442F1
:1056700011D0C64884420ED0C54884420BD0C548DC
:10568000844208D0C448844205D0C448844202D031
:10569000C348844200D104E040F6E901B048FAF77B
:1056A00000FEA58570BD70B504460D46AD48844228
:1056B00029D0B4F1804F26D0AB48844223D0AB48E8
:1056C000844220D0AA4884421DD0AC4884421AD0DB
:1056D000AB48844217D0AB48844214D0AA488442D5
:1056E00011D0AA4884420ED0A94884420BD0A948C0
:1056F000844208D0A848844205D0A848844202D0F9
:10570000A748844200D104E040F6F7019448FAF734
:10571000C8FDA58670BD70B504460D46914884420B
:1057200017D0B4F1804F14D08F48844211D08F48E5
:1057300084420ED08E4884420BD09048844208D0D8
:105740008F48844205D09148844202D092488442D6
:1057500000D104E040F605118148FAF7A2FD258743
:1057600070BD70B504460D467E4884420ED0B4F13B
:10577000804F0BD07C48844208D07C48844205D0BE
:105780007B48844202D07D48844200D104E040F648
:1057900013117348FAF785FDA58770BD70B50446EF
:1057A0000D46704884420ED0B4F1804F0BD06E4845
:1057B000844208D06D48844205D06D48844202D0AE
:1057C0006E48844200D104E040F621116448FAF7A3
:1057D00068FDA4F8405070BD70B504460D466148A0
:1057E000844229D0B4F1804F26D05F48844223D030
:1057F0005E48844220D05E4884421DD05F48844287
:105800001AD05F48844217D05E48844214D05E4864
:10581000844211D05D4884420ED05D4884420BD052
:105820005C48844208D05C48844205D05B4884428E
:1058300002D05B48844200D104E040F68C11484815
:10584000FAF72FFD2DB1B5F5807F02D0B5F5007FB9
:1058500000D104E040F68D114148FAF722FD20887E
:105860004FF6FF410840208020882843208070BDEB
:1058700010B504463B48844229D0B4F1804F26D06D
:105880003948844223D03948844220D03848844261
:105890001DD03A4884421AD03948844217D039483A
:1058A000844214D03848844211D0384884420ED003
:1058B000374884420BD03748844208D03648844267
:1058C00005D03648844202D03548844200D104E0F5
:1058D00040F69C112248FAF7E4FCA08E10BD10B5EA
:1058E00004462048844217D0B4F1804F14D01E489B
:1058F000844211D01D4884420ED01D4884420BD0F2
:105900001E48844208D01E48844205D01F48844265
:1059100002D02148844200D104E040F6A911104889
:10592000FAF7BFFC208F10BD10B504460D48844225
:105930000ED0B4F1804F0BD00B48844208D00B48F6
:10594000844205D00A48844202D00C48844200D1E7
:1059500004E040F6B6110248FAF7A3FCA08F10BD90
:10596000A02A0008002C014000040040000800406C
:10597000000C0040001000400014004000340140C2
:10598000004C01400050014000540140001800400C
:10599000001C004000200040004001400044014045
:1059A0000048014010B50446F94884420ED0B4F1D5
:1059B000804F0BD0F748844208D0F748844205D086
:1059C000F648844202D0F648844200D104E040F612
:1059D000C311F448FAF765FCB4F8400010BD10B5E7
:1059E0000446EB4884422FD0B4F1804F2CD0E948D4
:1059F000844229D0E848844226D0E848844223D013
:105A0000E948844220D0E94884421DD0E4488442D9
:105A10001AD0E748844217D0E648844214D0E648BA
:105A2000844211D0E54884420ED0E54884420BD030
:105A3000E448844208D0E448844205D0E3488442E4
:105A400002D0E348844200D104E04FF41D61D54800
:105A5000FAF727FCA08C10BD10B50446CC48844250
:105A60002FD0B4F1804F2CD0CA48844229D0CA48E4
:105A7000844226D0C948844223D0CB48844220D0D7
:105A8000CA4884421DD0C64884421AD0C8488442BD
:105A900017D0C848844214D0C748844211D0C748A0
:105AA00084420ED0C64884420BD0C648844208D0F7
:105AB000C548844205D0C548844202D0C4488442C7
:105AC00000D104E040F6DD11B648FAF7EAFB208D7C
:105AD00010BD70B504460D460026AD4884422FD057
