:020000040800F2
:10000000000A0020C9010008D1010008D30100083E
:10001000D5010008D7010008D90100080000000040
:10002000000000000000000000000000DB010008EC
:10003000DD01000800000000DF010008E9260008DB
:10004000E3010008E3010008E3010008E301000800
:10005000E3010008E3010008E3010008E3010008F0
:10006000E3010008E3010008E3010008E3010008E0
:10007000E3010008E3010008E3010008E3010008D0
:10008000E3010008E3010008E3010008E3010008C0
:10009000E3010008E3010008E3010008E3010008B0
:1000A000E3010008E3010008E3010008E3010008A0
:1000B000E3010008E3010008E3010008E301000890
:1000C000E3010008E3010008E3010008E301000880
:1000D000E3010008E3010008552B0008E3010008D4
:1000E000E3010008E3010008E301000800F002F862
:1000F00000F05AF80AA090E8000C82448344AAF168
:100100000107DA4501D100F04FF8AFF2090EBAE865
:100110000F0013F0010F18BFFB1A43F0010318473B
:1001200014360000343600000A444FF0000C10F87A
:10013000013B13F0070408BF10F8014B1D1108BF65
:1001400010F8015B641E05D010F8016B641E01F805
:10015000016BF9D113F0080F1EBF10F8014BAD1C55
:100160000C1B09D16D1E58BF01F801CBFAD505E073
:1001700014F8016B01F8016B6D1EF9D59142D6D3CD
:10018000704700000023002400250026103A28BFF5
:1001900078C1FBD8520728BF30C148BF0B607047F9
:1001A0001FB51FBD10B510BD03F08DFA1146FFF746
:1001B000F7FF00F05BF803F0ABFA03B4FFF7F2FFD0
:1001C00003BC03F0AFFA0000094880470948004724
:1001D000FEE7FEE7FEE7FEE7FEE7FEE7FEE7FEE7F7
:1001E000FEE7FEE704480549054A064B7047000054
:1001F0009B030008ED00000800040020000A002016
:10020000000600200006002008B50120ADF800001F
:1002100010208DF8030003208DF802006946244861
:1002200000F0A8FE0121224801F071F84FF47A7025
:1002300002F063FA01211E4801F094F84FF47A703D
:1002400002F05BFA08BD08B54FF48070ADF800000D
:1002500018208DF8030003208DF802006946154828
:1002600000F088FE042000F0A9FD08BD0121042053
:1002700000F0E1FC0121082000F0DDFC012110204C
:1002800000F0D9FC4FF4E06000F008F902F0F8F952
:10029000094802F087FAFFF7D6FF05E0FFF7B4FF41
:1002A00002F0A5FA02F02EFBF8E700BFFEE700001F
:1002B000000C014000080140440000200CB5002063
:1002C000019000906C48006840F480306A490860F2
:1002D00000BF6948006800F4003000900198401C9D
:1002E0000190009818B90198B0F5A06FF1D162485B
:1002F000006800F4003010B10120009001E00020FF
:1003000000900098012843D15C48006840F010003C
:100310005A4908600846006820F003000860084653
:10032000006840F002000860534840685249486045
:100330000846406848600846406840F4806048606D
:100340000846406820F47C1048600846406840F445
:10035000E81048600846006840F08070086000BF00
:100360004548006800F000700028F9D04248406815
:1003700020F00300404948600846406840F0020011
:10038000486000BF3C48406800F00C000828F9D1E4
:100390000CBD10B5FFF792FF10BD10B536480068D0
:1003A00040F001003449086008464068344908407C
:1003B0003149486008460068324908402E490860C3
:1003C0000846006820F4802008600846406820F451
:1003D000FE0048604FF41F008860FFF7DAFF4FF01F
:1003E00000602949086010BD10B5002100200022DE
:1003F000214B5B6803F00C0121B1042906D00829C8
:1004000028D107E0214B224C236027E01F4B204CD2
:10041000236023E0184B5B6803F47010164B5B6895
:1004200003F48032022303EB904022B9194B43437B
:10043000174C23600DE0104B5B6803F4003323B1CD
:10044000144B4343124C236003E0104B4343104CC6
:10045000236003E00D4B0E4C236000BF00BF064B32
:100460005B68C3F303130C4CE15C094B1B68CB4086
:10047000074C236010BD0000001002400020024025
:100480000000FFF8FFFFF6FE08ED00E000127A0022
:100490000000002000093D000400002010B50446C3
:1004A000B4F5E06F0BD0B4F5C06F08D0B4F5A06F11
:1004B00005D0B4F5806F02D0B4F5407F00D103E0E1
:1004C00063215DA0FFF7F1FE5F4820435F490860AC
:1004D00010BD2DE9F0410446002500270F26E078E5
:1004E00010B1E078012800D103E0752152A0FFF798
:1004F000DCFE6078102800DA03E076214EA0FFF7DA
:10050000D4FEA078102800DA03E077214AA0FFF794
:10051000CCFEE07800B34D48006800F4E060C0F520
:10052000E060050AC5F10407EE40607800FA07F5BF
:10053000A078304005432D01454822788554207825
:1005400000F01F010120884021784911890001F144
:10055000E021C1F8000109E0207800F01F0101202E
:1005600088403C492278521141F82200BDE8F081D0
:1005700070B504460D46B4F1005F02D0B4F1006FCF
:1005800000D103E09F212CA0FFF78FFE3248854267
:1005900000D203E0A02128A0FFF787FE2F4905EA3B
:1005A000010020432949091F086070BD70B5044649
:1005B0000D46102C03D0042C01D0022C00D103E0F6
:1005C000B2211DA0FFF771FE0DB1012D00D103E096
:1005D000B32119A0FFF769FE3DB11C48001D00685A
:1005E00020431A49091D086006E01848001D0068EC
:1005F000A0431649091D086070BD10B50446042CBF
:1006000001D0601D00B903E0CA210BA0FFF74DFE29
:10061000042C08D14FF0E020006940F004004FF0B6
:10062000E021086107E04FF0E020006920F00400BD
:100630004FF0E021086110BD53504C5C7372635C55
:100640006D6973632E6300000000FA050CED00E095
:1006500000E400E080E100E0FFFF0F0080FFFF1FEB
:10066000FE48006840F00100FC4908600846406808
:10067000FB490840F949486008460068F9490840C4
:10068000F64908600846006820F4802008600846A3
:10069000406820F4FE0048604FF41F0088607047F7
:1006A00010B504462CB1B4F5803F02D0B4F5802FCC
:1006B00000D104E040F21111EBA0FFF7F6FDE7488E
:1006C000006820F48030E54908600846006820F49E
:1006D00080200860B4F5803F03D0B4F5802F0ED1A0
:1006E00006E0DE48006840F48030DC49086007E03E
:1006F000DA48006840F4A020D849086000E000BF54
:1007000000BF10BD2DE9F04104460025002600275A
:10071000212C13D0312C11D0392C0FD0412C0DD0DD
:10072000612C0BD07A2C09D07B2C07D07C2C05D0E7
:100730007D2C03D07E2C01D07F2C00D104E040F230
:100740003451C9A0FFF7B1FD6511012D02D1C34895
:10075000066806E0022D02D1C048066A01E0BF48E3
:10076000466A04F01F050120A840304008B1012767
:1007700000E000273846BDE8F08138B50020009041
:100780000024002500BF3120FFF7BCFF054600987C
:10079000401C00900098B0F5A06F01D0002DF2D061
:1007A0003120FFF7AFFF08B1012400E0002420460C
:1007B00038BD70B5044600251F2C00DC04E04FF462
:1007C000A971A9A0FFF771FDA448056825F0F805F7
:1007D00045EAC405056070BD10B504460CB1012C96
:1007E00000D104E040F265119FA0FFF75EFDA44830
:1007F000046010BD70B505460C4600262DB1B5F558
:10080000803F02D0B5F5403F00D104E040F27F11B7
:1008100095A0FFF74AFD4CB3B4F5802F26D0B4F570
:10082000002F23D0B4F5402F20D0B4F5801F1DD069
:10083000B4F5A01F1AD0B4F5C01F17D0B4F5E01F4F
:1008400014D0B4F5001F11D0B4F5101F0ED0B4F5BC
:10085000201F0BD0B4F5301F08D0B4F5401F05D0D1
:10086000B4F5501F02D0B4F5601F00D104E04FF47E
:10087000C0717DA0FFF719FD7848466826F47C1604
:1008800045EA040006437548466070BD10B504464D
:100890000CB1012C00D104E04FF4CA7172A0FFF733
:1008A00004FD7748046610BD70B5044600251CB1F0
:1008B000012C01D0022C00D104E04FF40E716AA08B
:1008C000FFF7F3FC6548456825F0030525434560BF
:1008D00070BD6248406800F00C00704770B5044677
:1008E00000257CB1802C0DD0902C0BD0A02C09D0F1
:1008F000B02C07D0C02C05D0D02C03D0E02C01D0D8
:10090000F02C00D104E04FF4197157A0FFF7CDFC93
:100910005248456825F0F0052543456070BD70B527
:10092000044600255CB1B4F5806F08D0B4F5A06F23
:1009300005D0B4F5C06F02D0B4F5E06F00D104E08B
:1009400040F27E2148A0FFF7B0FC4448456825F4FA
:10095000E0652543456070BD70B5044600255CB177
:10096000B4F5806F08D0B4F5A06F05D0B4F5C06FB2
:1009700002D0B4F5E06F00D104E04FF426713AA044
:10098000FFF793FC3548456825F4605545EAC405F2
:10099000456070BD70B504460D4604F0E00008B92E
:1009A00004B104E040F2BF212FA0FFF77EFC0DB19F
:1009B000012D00D104E04FF430712BA0FFF775FC3E
:1009C0002DB12648407A20432449487204E0234848
:1009D000407AA0432149487270BD10B504460CB15D
:1009E000012C00D104E040F2DB211FA0FFF75DFCE9
:1009F0002348D830046010BD70B50446002544B1CA
:100A0000B4F5804F05D0B4F5004F02D0B4F5404F97
:100A100000D104E040F2023113A0FFF746FC0F487A
:100A2000456825F440452543456070BD10B5044632
:100A30001CB1012C01D0042C00D104E04FF4507102
:100A400009A0FFF732FC0020044920310870034957
:100A500081F82000012C17D0042C13E00010024074
:100A60000000FFF8FFFFF6FE53504C5C7372635CAE
:100A700073746D3332663130785F7263632E630056
:100A80000000424208D103E00120F449087004E06C
:100A90000520F249087000E000BF00BF10BD10B58E
:100AA00004460CB1012C00D105E040F26131AFF2F7
:100AB0004800FFF7FAFBEA48046010BD10B5044691
:100AC000B4F5807F05D0B4F5007F02D0B4F5407F47
:100AD00000D105E040F27231AFF27400FFF7E5FBA0
:100AE000DE482038006A2043DC492039086210BD06
:100AF00010B504460CB1012C00D105E04FF4607133
:100B0000AFF29C00FFF7D1FBD5484438046010BD1C
:100B100030B50021002200240023D04D203D6D6817
:100B200005F00C0121B1042905D0082926D105E0E2
:100B3000CC4D056025E0CB4D056022E0C74D203D42
:100B40006D6805F47012C54D203D6D6805F4803464
:100B5000022505EB92421CB9C34D554305600CE0DC
:100B6000BE4D203D6D6805F400351DB1BE4D5543A9
:100B7000056002E0BB4D5543056002E0B94D0560DC
:100B800000BF00BFB54D203D6D6805F0F0010909BB
:100B9000B64D6B5C0568DD404560B04D203D6D682D
:100BA00005F4E061090AB14D6B5C4568DD40856084
:100BB000AA4D203D6D6805F46051C90AAB4D6B5CD0
:100BC0004568DD40C560A54D203D6D6805F4404198
:100BD000890BA74D6B5CC568B5FBF3F5056130BDAE
:100BE00070B504460D4640F2575024EA000008B99B
:100BF00004B105E040F22B41AFF29410FFF755FB32
:100C00000DB1012D00D105E040F22C41AFF2A8104A
:100C1000FFF74BFB3DB191482038406920438F4995
:100C20002039486106E08D4820384069A0438B494F
:100C30002039486170BD70B504460D468D4820408E
:100C400008B904B105E040F24A41AFF2E410FFF701
:100C50002CFB0DB1012D00D105E040F24B41AFF26C
:100C6000F810FFF722FB3DB17C4820388069204313
:100C70007A492039886106E0784820388069A043A5
:100C800076492039886170BD70B504460D467A48B2
:100C9000204008B904B105E040F26941AFF23820C4
:100CA000FFF703FB0DB1012D00D105E040F26A41D1
:100CB000AFF24C20FFF7F9FA3DB168482038C0691F
:100CC000204366492039C86106E064482038C0697D
:100CD000A04362492039C86170BD70B504460D4615
:100CE0006448204008B904B105E040F2A441AFF2E5
:100CF0008820FFF7DAFA0DB1012D00D105E040F2AE
:100D0000A541AFF29C20FFF7D0FA3DB153482038FF
:100D1000C068204351492039C86006E04F48203858
:100D2000C068A0434D492039C86070BD70B5044605
:100D30000D465148204008B904B105E040F2C341D6
:100D4000AFF2DC20FFF7B1FA0DB1012D00D105E0C3
:100D500040F2C441AFF2F020FFF7A7FA3DB13F489F
:100D60002038006920433D492039086106E03B48AE
:100D700020380069A04339492039086170BD10B599
:100D800004460CB1012C00D105E04FF49B61AFF299
:100D90002830FFF78AFA32484038046010BD10B599
:100DA00004460CB1012C00D105E040F2E541AFF260
:100DB0004830FFF77AFA3148C46410BD10B50446D4
:100DC0003CB1052C05D0042C03D0062C01D0072CF7
:100DD00000D105E040F20551AFF27430FFF765FA3B
:100DE0001E482038C47110BD1C482038406A40F0AD
:100DF00080701A4920394862704770B50446002552
:100E0000012C09D0022C07D0042C05D0082C03D0CB
:100E1000102C01D0802C00D105E040F27E51AFF2C1
:100E2000B830FFF742FA0D4820388068204008B1FA
:100E3000012500E00025284670BD10B5044604F0E9
:100E4000600008B904B105E040F2AB51AFF2E83000
:100E5000FFF72BFA01482038847210BD20100240A1
:100E60008004424200127A0000093D001400002074
:100E7000240000200200C0FF003601810000424231
:100E800010B50446FC48844211D0FC4884420ED080
:100E9000FB4884420BD0FB48844208D0FA48844285
:100EA00005D0FA48844202D0F948844200D103E0D8
:100EB0006F21F8A0FFF7F9F9EF48844208D101212A
:100EC0000420FFF70AFF00210420FFF706FF46E099
:100ED000EA48844208D101210820FFF7FEFE0021E4
:100EE0000820FFF7FAFE3AE0E548844208D10121E4
:100EF0001020FFF7F2FE00211020FFF7EEFE2EE09B
:100F0000E048844208D101212020FFF7E6FE0021BD
:100F10002020FFF7E2FE22E0DB48844208D10121D5
:100F20004020FFF7DAFE00214020FFF7D6FE16E052
:100F3000D648844208D101218020FFF7CEFE00214F
:100F40008020FFF7CAFE0AE0D148844207D1012180
:100F50008015FFF7C2FE0021A015FFF7BEFE10BDF1
:100F600010B501210846FFF7B8FE00210120FFF768
:100F7000B4FE10BD2DE9F05F05460C464FF00009A8
:100F8000CA4600260027B046B346BB48854211D06A
:100F9000BA4885420ED0BA4885420BD0B94885423E
:100FA00008D0B948854205D0B848854202D0B84833
:100FB000854200D103E0B221B6A0FFF776F9E078D0
:100FC000A0B1E078042811D0E07828280ED0E0788D
:100FD00048280BD0E078142808D0E078102805D0F5
:100FE000E0781C2802D0E078182800D103E0B32173
:100FF000A8A0FFF75AF9002010B9208800B103E03B
:10100000B421A4A0FFF751F9E07800F00F09E078CF
:1010100000F0100080B1A078012805D0A078022847
:1010200002D0A078032800D103E0BB2199A0FFF7EC
:101030003CF9A07840EA0909207838B3D5F8008057
:1010400000261FE0012000FA06F7208800EA070AC0
:10105000BA4516D1B7000F2000FA07FB28EA0B08A3
:1010600009FA07F040EA0808E078282803D10120AF
:10107000B040686105E0E078482802D10120B04026
:101080002861761C082EDDD3C5F800802088FF2853
:101090002BDDD5F80480002623E006F108000121AD
:1010A00001FA00F7208800EA070ABA4518D1B7000C
:1010B0000F2000FA07FB28EA0B0809FA07F040EABC
:1010C0000808E078282803D106F10800814069610A
:1010D000E078482804D106F1080001218140296107
:1010E000761C082ED9D3C5F80480BDE8F09F4FF6D2
:1010F000FF710180022181700421C170704770B5B9
:1011000005460C4600265C48854211D05B48854266
:101110000ED05B4885420BD05A48854208D05A48C9
:10112000854205D05948854202D05948854200D1B0
:1011300004E04FF48F7157A0FFF7B7F8012C25D0CA
:10114000022C23D0042C21D0082C1FD0102C1DD011
:10115000202C1BD0402C19D0802C17D0B4F5807FC8
:1011600014D0B4F5007F11D0B4F5806F0ED0B4F573
:10117000006F0BD0B4F5805F08D0B4F5005F05D0E8
:10118000B4F5804F02D0B4F5004F00D104E040F236
:101190001F1140A0FFF789F8A868204008B1012678
:1011A00000E00026304670BD10B504463248844247
:1011B00011D0324884420ED0314884420BD031489D
:1011C000844208D03048844205D03048844202D05E
:1011D0002F48844200D104E04FF49A712DA0FFF70C
:1011E00064F8A06880B210BD70B505460C460026B4
:1011F0002148854211D0214885420ED020488542A1
:101200000BD02048854208D01F48854205D01F4892
:10121000854202D01E48854200D104E04FF4A271FD
:101220001CA0FFF742F8012C25D0022C23D0042C5F
:1012300021D0082C1FD0102C1DD0202C1BD0402CCE
:1012400019D0802C17D0B4F5807F14D0B4F5007F6E
:1012500011D0B4F5806F0ED0B4F5006F0BD0B4F59B
:10126000805F08D0B4F5005F05D0B4F5804F02D0A0
:10127000B4F5004F1CD121E000080140000C0140F2
:10128000001001400014014000180140001C014002
:101290000020014053504C5C7372635C73746D3377
:1012A00032663130785F6770696F2E63000000002E
:1012B00040F24511AFF22400FEF7F7FFE868204046
:1012C00008B1012600E00026304670BD10B5044686
:1012D000FE48844211D0FE4884420ED0FD4884422C
:1012E0000BD0FD48844208D0FC48844205D0FC481D
:1012F000844202D0FB48844200D105E04FF4AD7136
:10130000AFF27000FEF7D1FFE06880B210BD70B59B
:1013100004460D46ED48844211D0ED4884420ED07B
:10132000EC4884420BD0EC48844208D0EB4884421D
:1013300005D0EB48844202D0EA48844200D105E05F
:1013400040F26911AFF2B400FEF7AFFF002008B918
:1013500005B105E04FF4B571AFF2C800FEF7A5FF87
:10136000256170BD70B504460D46D848844211D041
:10137000D74884420ED0D74884420BD0D648844206
:1013800008D0D648844205D0D548844202D0D548FA
:10139000844200D105E040F27911AFF20810FEF767
:1013A00084FF002008B905B105E04FF4BD71AFF22C
:1013B0001C10FEF77AFF656170BD70B505460C46DE
:1013C0001646C248854211D0C14885420ED0C14858
:1013D00085420BD0C048854208D0C048854205D020
:1013E000BF48854202D0BF48854200D105E040F2A7
:1013F0008D11AFF26010FEF758FF012C25D0022CA2
:1014000023D0042C21D0082C1FD0102C1DD0202C30
:101410001BD0402C19D0802C17D0B4F5807F14D06D
:10142000B4F5007F11D0B4F5806F0ED0B4F5006F25
:101430000BD0B4F5805F08D0B4F5005F05D0B4F5EB
:10144000804F02D0B4F5004F00D105E04FF4C771D2
:10145000AFF2C010FEF729FF0EB1012E00D105E05A
:1014600040F28F11AFF2D410FEF71FFF0EB12C61C6
:1014700000E06C6170BD70B504460D46934884422F
:1014800011D0934884420ED0924884420BD09248A7
:10149000844208D09148844205D09148844202D0C9
:1014A0009048844200D105E04FF4D271AFF21C2085
:1014B000FEF7FBFEE56070BD70B504460D464FF4C7
:1014C00080368248844211D0814884420ED08148BF
:1014D00084420BD08048844208D08048844205D0A2
:1014E0007F48844202D07F48844200D105E040F228
:1014F000B511AFF26020FEF7D8FE002008B905B1A3
:1015000005E04FF4DB71AFF27420FEF7CEFE2E4300
:10151000A661A561A661A669A66970BD70B50546FC
:101520000C4600263DB1012D05D0022D03D0032D20
:1015300001D0042D00D105E04FF4E971AFF2AC20E9
:10154000FEF7B3FEECB1012C1BD0022C19D0032CFA
:1015500017D0042C15D0052C13D0062C11D0072C35
:101560000FD0082C0DD0092C0BD00A2C09D00B2C35
:1015700007D00C2C05D00D2C03D00E2C01D00F2C35
:1015800000D105E040F2D311AFF2F820FEF78DFE56
:10159000554806684FF68070064046EA0516264311
:1015A0005148066070BD10B504460CB1012C00D145
:1015B00005E04FF4F371AFF22430FEF776FE4B48AE
:1015C000C46110BD2DE9F04704460E460027B84619
:1015D0000025A946012C77D0022C75D0042C73D09D
:1015E000082C71D0424884426ED041482030844259
:1015F0006AD04048844267D03E488030844263D0FD
:101600003D48844260D03D4884425DD03C4884429D
:101610005AD03C48844257D03B48844254D0B4F519
:10162000805F51D0B4F5EA1F4ED0B4F5EB1F4BD01C
:10163000B4F5004F48D03548844245D0401C844220
:1016400042D0801C84427FD0001D84427CD02F4831
:101650000F30844278D0B4F1201F75D04FEAF030BB
:10166000844271D02A4884426ED02A4884426BD08A
:101670002948844268D02948844265D02848844259
:1016800062D0B4F5011F5FD0264884425CD0401C74
:10169000844259D0801C844256D0001D844253D0CD
:1016A00020480F3084424FD01E481F3084424BD018
:1016B0001C483F30844247D01A487F30844243D090
:1016C0001848FF3084422FE03EE00000000801404F
:1016D000000C0140001001400014014000180140BE
:1016E000001C014000200140000001400000204299
:1016F000100014004000160000011800000218003D
:101700000003180000081A00000C1A000100200055
:101710000001300000023000000430000011200001
:1017200000202000010000800ED0664884420BD0CB
:101730006548844208D06548844205D064488442A4
:1017400002D06448844200D105E040F22A21AFF281
:10175000BC40FEF7AAFD0EB1012E00D105E040F21B
:101760002B21AFF2D040FEF7A0FD04F00040B0F115
:10177000004F02D15848C56901E057484568C4F395
:101780000349A7B204F44010B0F5401F08D125F07A
:1017900070655148406820F070604F49486013E020
:1017A00004F48010B0F5801F07D1032000FA09F877
:1017B00025EA080545F0706506E0600D000107FAAE
:1017C00000F0854345F0706526B1600D010107FA10
:1017D00001F0054304F00040B0F1004F02D13E4853
:1017E000C56101E03C484560BDE8F08770B505463D
:1017F0000C4600265DB1012D09D0022D07D0032D26
:1018000005D0042D03D0052D01D0062D00D105E013
:1018100040F26521AFF28450FEF747FDECB1012C98
:101820001BD0022C19D0032C17D0042C15D0052C5A
:1018300013D0062C11D0072C0FD0082C0DD0092C5A
:101840000BD00A2C09D00B2C07D00C2C05D00D2C5A
:1018500003D00E2C01D00F2C00D105E040F2662100
:10186000AFF2D050FEF721FDA007010F0F2000FAC4
:1018700001F619480830A11050F82100B04316496C
:101880000831A21041F822000846A11050F82100AA
:10189000A107090F05FA01F108430F490831A21009
:1018A00041F8220070BD10B504460CB1012C00D1E6
:1018B00005E04FF41E71AFF22460FEF7F6FC074816
:1018C000046010BD00020080000400800008008059
:1018D000001000800020008000000140DC00204259
:1018E00010B50446FE4884420BD0FE48844208D01E
:1018F000FD48844205D0FD48844202D0FC48844221
:1019000000D103E08521FBA0FEF7CFFCF448844220
:1019100009D101218803FFF7E0F900214FF480404D
:10192000FFF7DBF932E0EF48844209D10121480496
:10193000FFF7FCF900214FF40030FFF7F7F925E03D
:10194000E948844209D101218804FFF7EFF9002119
:101950004FF48020FFF7EAF918E0E448844209D107
:101960000121C804FFF7E2F900214FF40020FFF73E
:10197000DDF90BE0DE48844208D101210805FFF7BC
:10198000D5F900214FF48010FFF7D0F910BD2DE9F3
:10199000F04786B005460C460026B24600BFB14669
:1019A0000027CF4885420BD0CE48854208D0CE488C
:1019B000854205D0CD48854202D0CD48854200D130
:1019C00003E0B821CBA0FEF770FC206820B1D0491D
:1019D0002068884200D203E0B921C6A0FEF765FC6A
:1019E000A08818B1A088B0F5805F00D103E0BA21CB
:1019F000C0A0FEF75AFCE08858B1E088B0F5805FDF
:101A000007D0E088B0F5005F03D0E088B0F5405F14
:101A100000D103E0BB21B7A0FEF747FC208938B115
:101A20002089B0F5806F03D02089B0F5C06F00D158
:101A300003E0BC21AFA0FEF738FC60894FF6F371DC
:101A4000084010B9608900B103E0BD21A9A0FEF7EC
:101A50002CFCA08958B1A089B0F5807F07D0A0895F
:101A6000B0F5007F03D0A089B0F5407F00D103E03E
:101A7000BE21A0A0FEF719FCA08968B19848854254
:101A800005D09848854202D09748854200D103E0AE
:101A9000C22198A0FEF709FC2F462E8A4CF6FF7053
:101AA0000640E08806432E82AE894EF6F3100640CB
:101AB000A08821890843618908430643AE81AE8A24
:101AC0004FF6FF400640A0890643AE8201A8FFF70B
:101AD0001FF88348874202D1DDF810A001E0DDF84D
:101AE0000CA0A88900F4004040B10AEBCA0000EB4A
:101AF0000A1021684900B0FBF1F807E00AEBCA00C0
:101B000000EB0A1021688900B0FBF1F86420B8FBF3
:101B1000F0F006013009642101FB1089A88900F466
:101B2000004040B1322000EBC900B0FBF1F000F002
:101B30000700064308E0322000EB09106421B0FBE7
:101B4000F1F000F00F0006432E8106B0BDE8F087EB
:101B50004FF41651016000218180C18001810C2168
:101B6000418100218181704770B505460C460026F1
:101B70005B48854205D05B48854202D05A48854281
:101B800000D104E04FF499715AA0FEF78EFB208833
:101B900018B12088B0F5006F00D104E040F2331195
:101BA00054A0FEF782FB608818B16088B0F5806FA2
:101BB00000D104E04FF49A714EA0FEF776FBA088A6
:101BC00018B1A088B0F5007F00D104E040F23511D3
:101BD00048A0FEF76AFBE08818B1E088B0F5807F86
:101BE00000D104E04FF49B7142A0FEF75EFB2E8A09
:101BF0004FF2FF000640208861880843A18808430F
:101C0000E188084306432E8270BD00210180418097
:101C10008180C180704770B504460D4630488442CB
:101C20000BD03048844208D02F48844205D02F483A
:101C3000844202D02E48844200D104E04FF4B171B6
:101C40002CA0FEF732FB0DB1012D00D104E040F2D3
:101C5000631128A0FEF729FB25B1A08940F40050AC
:101C6000A08104E0A0894DF6FF710840A08170BDFD
:101C70002DE9F04705460C4617464FF00008C246CE
:101C8000C1460026164885420BD01648854208D02A
:101C90001548854205D01548854202D01448854232
:101CA00000D104E040F2891112A0FEF7FEFA282CC0
:101CB00034D040F22770844230D040F22660844213
:101CC0002CD040F22550844228D040F22440844257
:101CD00024D040F64600844220D040F66A1019E035
:101CE000003801400044004000480040004C0040E3
:101CF0000050004053504C5C7372635C73746D33DE
:101D000032663130785F75736172742E6300000043
:101D100021AA4400844201D0602C00D105E04FF498
:101D2000C571AFF23000FEF7C0FA0FB1012F00D13C
:101D300005E040F28B11AFF24400FEF7B6FA40F630
:101D40006A1084420FD1F948854205D0F84885428F
:101D500002D0F848854200D105E040F28F11AFF281
:101D60006C00FEF7A2FA2E46C4F3421804F01F0AD4
:101D7000012000FA0AF9B8F1010F01D10C3605E093
:101D8000B8F1020F01D1103600E0143627B13068E7
:101D900040EA0900306003E0306820EA0900306062
:101DA000BDE8F08770B504460D461646DF4884420C
:101DB0000BD0DF48844208D0DE48844205D0DE489C
:101DC000844202D0DD48844200D105E040F2C311D4
:101DD000AFF2E000FEF769FA4FF63F70284008B90D
:101DE00005B105E04FF4E271AFF2F800FEF75DFADD
:101DF0000EB1012E00D105E040F2C511AFF20C107A
:101E0000FEF753FA1EB1A08A2843A08202E0A08AFE
:101E1000A843A08270BD70B504460D46C3488442F5
:101E20000BD0C348844208D0C248844205D0C2487F
:101E3000844202D0C148844200D105E040F2DF1163
:101E4000AFF25010FEF731FA0F2D00DC05E04FF431
:101E5000F071AFF26010FEF728FA208A4FF6F071A9
:101E600008402082208A2843208270BD70B5044635
:101E70000D46AE4884420BD0AD48844208D0AD48F0
:101E8000844205D0AC48844202D0AC48844200D1A0
:101E900005E04FF4FB71AFF2A410FEF706FA15B19E
:101EA000B5F5006F00D105E040F2F711AFF2BC10BC
:101EB000FEF7FBF9A0894FF2FF710840A081A089CD
:101EC0002843A08170BD70B504460D4697488442F2
:101ED0000BD09748844208D09648844205D0964853
:101EE000844202D09548844200D105E040F20921A5
:101EF000AFF20020FEF7D9F90DB1012D00D105E0B8
:101F000040F20A21AFF21420FEF7CFF925B1A089E3
:101F100040F00200A08104E0A0894FF6FD71084066
:101F2000A08170BD70B504460D46804884420BD038
:101F30007F48844208D07F48844205D07E4884424E
:101F400002D07E48844200D105E040F22621AFF263
:101F50005C20FEF7AAF90DB1202D00D105E040F27A
:101F60002721AFF27020FEF7A0F9208A4FF6DF712B
:101F700008402082208A2843208270BD70B5044624
:101F80000D466A4884420BD06948844208D06948AB
:101F9000844205D06848844202D06848844200D117
:101FA00005E040F23921AFF2B420FEF77EF90DB121
:101FB000012D00D105E040F23A21AFF2C820FEF732
:101FC00074F925B1208A40F48040208204E0208A00
:101FD0004BF6FF710840208270BD70B504460D4677
:101FE000524884420BD05248844208D0514884421F
:101FF00005D05148844202D05048844200D105E0C7
:1020000040F25321AFF21430FEF74FF9B5F5007FDF
:1020100000DA05E04FF41571AFF22830FEF745F90C
:10202000C5F30800A08070BD10B504463F48844247
:102030000BD03F48844208D03E48844205D03E48F9
:10204000844202D03D48844200D105E04FF419712A
:10205000AFF26030FEF729F9A088C0F3080010BD88
:1020600010B50446314884420BD03148844208D030
:102070003048844205D03048844202D02F48844200
:1020800000D105E04FF41D71AFF29830FEF70DF965
:10209000A08940F00100A08110BD70B504460D4636
:1020A0002248844205D02248844202D021488442FA
:1020B00000D105E04FF42171AFF2C830FEF7F5F81A
:1020C000208BC0B22083208B40EA0520208370BD86
:1020D00070B504460D46154884420BD0144884421E
:1020E00008D01448844205D01348844202D01348D3
:1020F000844200D105E04FF42671AFF20840FEF7AC
:10210000D4F8208B00F47F402083208B2843208349
:1021100070BD70B504460D460448844205D004489D
:10212000844202D0034884420AD10FE000380140C3
:102130000044004000480040004C00400050004077
:1021400040F2AB21AFF25440FEF7AFF80DB1012DD4
:1021500000D105E04FF42B71AFF26840FEF7A5F80F
:1021600025B1A08A40F02000A08204E0A08A4FF6AA
:10217000DF710840A08270BD70B504460D46F94875
:10218000844205D0F848844202D0F848844200D105
:1021900005E04FF43171AFF2A440FEF786F80DB1BF
:1021A000012D00D105E040F2C521AFF2B840FEF7A5
:1021B0007CF825B1A08A40F01000A08204E0A08A3B
:1021C0004FF6EF710840A08270BD70B504460D4611
:1021D000E44884420BD0E448844208D0E348844277
:1021E00005D0E348844202D0E248844200D105E0B1
:1021F00040F2DE21AFF20450FEF757F80DB1012D89
:1022000000D105E040F2DF21AFF21850FEF74DF8A3
:1022100025B1A08A40F00800A08204E0A08A4FF611
:10222000F7710840A08270BD70B504460D46CD48D8
:1022300084420BD0CC48844208D0CC48844205D09C
:10224000CB48844202D0CB48844200D105E040F222
:10225000FD21AFF26050FEF728F80DB1012D00D13D
:1022600005E040F2FE21AFF27450FEF71EF825B1F2
:10227000A08940F40040A08103E0A089C0F30E00D3
:10228000A08170BD70B504460D46B64884420BD09F
:10229000B548844208D0B548844205D0B448844249
:1022A00002D0B448844200D105E04FF44671AFF249
:1022B000BC50FDF7FAFF0DB1012D00D105E040F251
:1022C0001931AFF2D050FDF7F0FF25B1A08A40F4EC
:1022D0000060A08204E0A08A4FF2FF710840A08253
:1022E00070BD70B504460D469E4884420BD09E4892
:1022F000844208D09D48844205D09D48844202D043
:102300009C48844200D105E040F23531AFF21C60B8
:10231000FDF7CBFF042D00D005B905E040F23631C2
:10232000AFF23060FDF7C1FFA08A4FF6FB710840A5
:10233000A082A08A2843A08270BD70B504460D46D5
:10234000884884420BD08848844208D08748844219
:1023500005D08748844202D08648844200D105E0F7
:102360004FF45271AFF27460FDF79FFF0DB1012D74
:1023700000D105E040F24931AFF28860FDF795FFEA
:1023800025B1A08A40F00200A08204E0A08A4FF6A6
:10239000FD710840A08270BD70B505460C46002650
:1023A000704885420BD07048854208D06F488542FE
:1023B00005D06F48854202D06E48854200D105E0C5
:1023C00040F26E31AFF2D460FDF76FFF012C13D0F5
:1023D000802C11D0402C0FD0202C0DD0102C0BD0E5
:1023E000B4F5807F08D0B4F5007F05D0082C03D069
:1023F000042C01D0022C00D105E040F26F31AFF285
:102400000C70FDF752FFB4F5007F0FD1554885429F
:1024100005D05548854202D05448854200D105E098
:1024200040F27331AFF23470FDF73FFF288820404F
:1024300008B1012600E00026304670BD70B50446A4
:102440000D46484884420BD04748844208D047484C
:10245000844205D04648844202D04648844200D196
:1024600005E040F29E31AFF27470FDF71EFF4FF6AB
:102470009F40284008B905B105E040F29F31AFF216
:102480008C70FDF712FF05F40070B0F5007F0FD1DE
:102490003448844205D03448844202D033488442D0
:1024A00000D105E040F2A331AFF2B870FDF7FDFEB8
:1024B000E843208070BD2DE9F04705460C46002713
:1024C0000026B046B146274885420BD026488542B3
:1024D00008D02648854205D02548854202D02548A7
:1024E000854200D105E040F2C131AFF2F870FDF74E
:1024F000DCFE282C20D040F2277084421CD040F211
:102500002660844218D040F22550844214D040F214
:102510002440844210D040F6460084420CD040F65D
:102520006A10844208D0B4F5587F05D0B4F5187FFE
:1025300002D0B4F5B07F00D105E040F2C231AFF671
:102540004C00FDF7B2FE40F66A1084421AD10548ED
:10255000854205D00448854202D0044885420BD10B
:1025600010E00000003801400044004000480040F6
:10257000004C00400050004040F2C631AFF68C00E5
:10258000FDF793FEC4F3421804F01F06012000FA81
:1025900006F6B8F1010F02D1A889064007E0B8F1AC
:1025A000020F02D1288A064001E0A88A06402712BD
:1025B000012000FA07F7288807401EB117B14FF035
:1025C000010901E04FF000094846BDE8F0872DE918
:1025D000F04104460D4600260027244884420BD0D3
:1025E0002348844208D02348844205D022488442AC
:1025F00002D02248844200D105E040F20A41AFF601
:102600000C10FDF752FE40F2266085420BD040F2DE
:102610002550854207D040F64600854203D040F65B
:102620006A10854200D105E040F20B41AFF63C1044
:10263000FDF73BFE40F66A1085420FD10B488442FD
:1026400005D00B48844202D00A48844200D105E0FC
:1026500040F20F41AFF66410FDF727FE2E12012065
:10266000B04087B2F8432080BDE8F08100380140D7
:102670000044004000480040004C00400050004032
:1026800030B5002023490860234800684FF47A726F
:10269000B0FBF2F1B1F1807F01D301201DE021F008
:1026A0007F40401E4FF0E022506150170F2200285B
:1026B00007DA13071D0E194B00F00F04241F1D55D8
:1026C00003E013071C0E164B1C5400BF00204FF0F4
:1026D000E022906107201061002020B100BF72B697
:1026E00000E000BFFDE730BD0A480068401C094912
:1026F0000860704707480068704700B50146FFF75B
:10270000F9FF024600E000BFFFF7F4FF801A88429D
:10271000F9D300BD280000200000002018ED00E0E3
:1027200000E400E030B502460B464FF6FF7013E0C0
:1027300012F8015B80EA052000210BE000F4004460
:1027400024B141F2210484EA400400E04400A0B234
:102750004C1CE1B20829F1DB1C00A3F10103E7D115
:1027600030BD30B502460B46FF2011E012F8014B98
:10277000604000210AE000F080041CB1312484EAAA
:10278000400400E04400E0B24C1CE1B20829F2DB56
:102790001C00A3F10103E9D130BD00000120504924
:1027A0000870704710B504464E4804604E484D49C5
:1027B0000968C1F82C014B48006800F046F9002078
:1027C000474908700021494800F037FB484800F0AD
:1027D00051FB0121454800F0AFFB0121444800F0C6
:1027E000AEFB10BD0020434908707047704770B5BC
:1027F00000BFFFF77FFF40490968401A3E4949681A
:10280000884201D3012000E00020012806D1FFF713
:10281000EDFF40F2EE21384800F05AF835480078D4
:1028200030B101281DD0022823D0032849D140E02F
:1028300010E02C48006800F092F904462B4900F0A3
:1028400090FA38B940F2EE212B4800F041F801200F
:10285000284908702348006800F0A1F90028E8D151
:1028600034E02349214800F052FD0220214908703C
:102870002CE01E4800F0D7FAB8B11D4800F0B4FAB9
:102880001B4800F064FB0446194800F05FFB054656
:10289000224629461348006800F089F900201049B3
:1028A000087003201349087002E0002011490870E5
:1028B0000CE00B480078012802D100200D49087077
:1028C00004E000BF72B600E000BFFDE700BF70BDCE
:1028D00070B504460D46FFF70DFF2060656070BDC2
:1028E0002C000020300000209D27000888020020D6
:1028F000800100203400002038000020002006491C
:102900000870704710B5802000F09EFE08B100BF2F
:10291000FEE710BD704700004000002038B50446B7
:1029200020798DF8000060798DF80100A0798DF88C
:10293000020001208DF803006846FDF7CAFD94F9F6
:10294000040000F01F02012191404209920002F1AF
:10295000E022C2F8001100BF38BD1FB50446E0698F
:1029600000900020ADF80400ADF80600ADF80800B6
:10297000ADF80C000C20ADF80A0069462068FFF79E
:1029800006F81FBD38B504462089ADF800000420C4
:102990008DF8030003208DF8020069462069FEF7D8
:1029A000E9FA6089ADF8000018208DF803000320D3
:1029B0008DF8020069466069FEF7DCFAA089ADF87F
:1029C000000010208DF8030003208DF802006946F6
:1029D000A069FEF7CFFAA189A069FEF7C3FC38BD54
:1029E00010B5044687492068884204D10121880334
:1029F000FEF721F928E084492068884204D10121AA
:102A00004804FEF741F91FE080492068884204D15C
:102A100001218804FEF738F916E07D4920688842D4
:102A200004D10121C804FEF72FF90DE0794920688F
:102A3000884204D101210805FEF726F904E040F29E
:102A40008F1175A0FDF731FC10BD10B5044620466E
:102A5000FFF7C6FF2046FFF795FF2046FFF77DFFF3
:102A60002046FFF75BFF01212068FFF7D4F8012221
:102A700040F225512068FFF7FBF8012240F2266161
:102A80002068FFF7F5F8002084F81F0184F8200182
:102A900084F8210110BD002100E0491C8142FCD3D3
:102AA000704770B504462068008800F0200058B3D5
:102AB00020688088C5B294F81F01FF2816DA94F8C0
:102AC000211104F12000455404F21F14A078401C89
:102AD000A070A078FF2190FBF1F201FB1200A07022
:102AE0002078401C2070A4F21F1409E0002084F814
:102AF0001F0184F8200184F82101D4F830018047B7
:102B000020212068FFF79AFC2068008800F0400030
:102B1000F8B1B4F8280168B1EC34A06B401CA06394
:102B2000A08F401EA087A26B117854F8EC0DFFF720
:102B300054FA0AE04FF47A70FFF7ADFFA189A0695B
:102B4000FEF710FCD4F82C01804740212068FFF7E5
:102B500075FC70BD10B53448FFF7A3FF10BD30B54C
:102B6000014691F8204101F12003185D01F21F1187
:102B70004B785B1C4B704B78FF2493FBF4F504FB04
:102B800015334B70EFF3108303F0010272B60B782C
:102B90005B1E0B70A1F21F1102B962B630BD014677
:102BA00091F81F0108B1012070470020FCE770B5C3
:102BB00004460D461646C4F82451701EA4F8280198
:102BC000A189A069FEF7A3FB29782068FFF705FA21
:102BD00070BD0168898941F004010268918100217A
:102BE00080F81F1180F8201180F8211170470168CA
:102BF000898921F00401026891817047704770470C
:102C00007047000000380140004400400048004088
:102C1000004C0040005000404C6962726172795C67
:102C2000756172742E630000440000202DE9F041AC
:102C300005460C4694F805012554FF34A079401C44
:102C4000A071A0792178FF3C88421BDB002084F82A
:102C5000050194F8FF00401E265C94F8FF00411E19
:102C60002046FFF77EFD0746BE420AD1201DC4F86C
:102C7000000194F8FF00401F84F804010020BDE823
:102C8000F08100BF0120FAE7BB2807D191F80521A8
:102C9000885491F80521521C81F80521704770B5C0
:102CA00005460C4603212046FFF75BFDA84208D1EC
:102CB00094F80501255494F80501401C84F8050199
:102CC00006E0002084F8050121462846FFF7DCFFD6
:102CD00070BD0146072903DB0F2901DC0120704785
:102CE0000020FCE770B505460C462846FFF7F1FFCB
:102CF00050B184F8FF5094F80501255494F805016B
:102D0000401C84F8050106E0002084F805012146F6
:102D10002846FFF7B9FF70BD024691F810019042B6
:102D200002D00AB1FF2A01D1012070470020FCE740
:102D300070B505460C4621462846FFF7EDFF40B129
:102D400094F80501255494F80501401C84F8050108
:102D500006E0002084F8050121462846FFF794FF8D
:102D600070BD70B506460C4600BFFFF7C3FCD4F833
:102D70000811401AD4F80C11884201D3012000E058
:102D8000002010B1002084F805014FF4FA75FFF718
:102D9000B1FCC4F80801C4F80C5100BF94F8050157
:102DA00030B1012809D002280CD0032814D10EE03C
:102DB00021463046FFF768FF13E021463046FFF713
:102DC000B7FF0EE021463046FFF78CFF09E02146B1
:102DD0003046FFF764FF04E021463046FFF726FF48
:102DE00070BD00BF0120FBE710B5044694F8040154
:102DF000401D84F8FF00BB20207094F8050160702E
:102E000094F8FF00A07003212046FFF7AAFCE070B1
:102E100094F8FF00411E2046FFF7A3FC94F8FF1032
:102E2000491E605410BD0146487808B9002070471B
:102E30000120FCE70246FF20704770B504460D46AE
:102E4000002084F8FF00201D04F58074206000201D
:102E5000207160714FF4FA76FFF74CFCA060E660D9
:102E600000BF002020746574AFF237006061A4F5E4
:102E7000807470BD002180F8FF10011DC0F80011A2
:102E8000002180F8041180F80511704770B50446E0
:102E90000D4684F805510021032000F05CF8D4F8B9
:102EA00000110870012084F8040170BD10B500F510
:102EB000807004790368195503795B1C0468E25437
:102EC00003799B1C0371A0F5807010BD014691F839
:102ED0000401421E02EBD2700523B3EB600F01DC4C
:102EE000012070470020FCE770B504460D4684F8C9
:102EF00005510021062000F02EF8D4F800110870CA
:102F0000012084F8040170BD90F80431D0F800214C
:102F1000D15490F80421521C80F8042170470146D6
:102F200091F80401401E052801DB012070470020B4
:102F3000FCE7C0F81411704780F81011704780F852
:102F400005117047014691F8050170477047014629
:102F500091F8FF007047024602F00F0001F0F00305
:102F6000184370472DE9F04105460C461646D5F842
:102F70000011087800F048FB0746E02100F03DFB17
:102F8000D4F800110870D4F800014670022084F8CB
:102F90000401BDE8F0812DE9F04706460C464FF0EC
:102FA000030A96F80401032806D00322214630467E
:102FB000FFF7D8FFBDE8F087D6F800014578D6F8CE
:102FC00000018778781B401C00F0FF08BD4202DC3E
:102FD000B8F1080F05DD022221463046FFF7C2FF97
:102FE000E8E74FF000090FE005EB0901C8B200F077
:102FF00046FB28B9022221463046FFF7B3FFD9E746
:1030000009F1010000F0FF09C145EDDBD6F8001120
:10301000087800F0F9FA8146A02100F0EEFAD4F821
:1030200000110870D4F800014570D4F800018770D1
:10303000032084F804014FF0000912E005EB0901B8
:10304000C8B200F0E5FA94F80421D4F800118854CD
:1030500094F80401401C84F8040109F1010000F017
:10306000FF09C145EADB00BFA4E72DE9F0410546B1
:103070000C464FF0020895F80401022806DA0322F4
:1030800021462846FFF76EFFBDE8F08195F8040160
:10309000401EC6B2052E05DD022221462846FFF756
:1030A00061FFF1E700270EE0791CD5F80021505CA4
:1030B00000F0E5FA28B9022221462846FFF752FF20
:1030C000E2E7781CC7B2B742EEDBD5F8001108780A
:1030D00000F09AFA0746A02100F08FFAD4F8001108
:1030E0000870012084F80401002719E0781CD5F845
:1030F0000011085C04F58074227921688854791CD9
:10310000D5F80021505C00F083FA2179491C22682F
:1031100050542079801C2071A4F58074781CC7B2AB
:10312000B742E3DB00BFAFE72DE9F05F04460E4690
:103130004FF0040B94F80401042806DA0322314608
:103140002046FFF70FFFBDE8F09FD4F80001457857
:10315000D4F8000190F80280A8EB0500401CC7B22B
:10316000454501DC082F05DD022231462046FFF7E8
:10317000F9FEE8E7F81C00F0FF0A94F80401504556
:1031800005D0032231462046FFF7ECFEDBE74FF087
:10319000000915E005EB0901C8B200F070FA28B18A
:1031A00005EB0901C8B200F07BFA28B902223146CA
:1031B0002046FFF7D7FEC6E709F1010000F0FF093E
:1031C000B945E7DB4FF000090DE009F10302D4F83F
:1031D0000031995C05EB0902D0B200F024FA09F144
:1031E000010000F0FF09B945EFDBD4F800110878C1
:1031F00000F00AFA8146A02100F0FFF9D6F800118C
:103200000870D6F800014570D6F8000180F80280F9
:10321000032086F8040100BF95E72DE9F047044636
:103220000E464FF0030994F80401032806DA03223E
:1032300031462046FFF796FEBDE8F08794F804116A
:10324000481E00EBD071C1F34707012000EB470097
:1032500000F0FF0894F80401404505D003223146F0
:103260002046FFF77FFEE7E7002519E0012202EB89
:103270004502D4F80011885C00F001FA40B1012247
:1032800002EB4502D4F80011885C00F009FA28B975
:10329000022231462046FFF765FECDE7681CC5B225
:1032A000BD42E3DBD4F80011087800F0ADF9054623
:1032B000A02100F0A2F9D6F800110870012086F8CC
:1032C000040100251FE0012202EB4502521CD4F844
:1032D0000031995C1A46012303EB4503D05C00F0F2
:1032E000A2F9012101EB4501D4F80001405C96F8F8
:1032F0000421D6F80011885496F80401401C86F881
:103300000401681CC5B2BD42DDDB00BF94E72DE9B6
:10331000F04104460F46D4F800010578284600F035
:10332000F001884600F070F9064694F81101404516
:1033300024D1072E1BD2DFE806F01A040A050F1568
:10334000100000BF39462046FFF767FF15E03946F9
:103350002046FFF7E9FE10E000BF39462046FFF7A0
:1033600084FE0AE039462046FFF715FE05E00122FB
:1033700039462046FFF7F6FD00BF00BFBDE8F081EB
:103380002DE9F84F04460E464FF0040B94F8040163
:10339000042802DA0120BDE8F88FD4F80001407853
:1033A000D6F800114978884207D1D4F80001807816
:1033B000D6F800118978884201D00120EBE7D4F8D3
:1033C00000014778D4F8000190F80290A9EB0700BB
:1033D000401C00F0FF0808F1030000F0FF0A94F819
:1033E0000401504501D00120D5E7002514E094F8F0
:1033F00010117B19D8B2D4F814219047009000988E
:1034000000F03DF930B1E81CD4F80021115C0098BF
:1034100000F009F9681CC5B24545E8DB0020BAE7B1
:103420002DE9F05F04460F464FF0030A94F80401BB
:10343000032802DA0120BDE8F09F94F80411481E29
:1034400000EBD071C1F3470597F80401401E00F06E
:10345000FF08454501D00120EDE7012000EB4500C4
:1034600000F0FF0994F80401484501D00120E2E78B
:1034700000210FE0012202EB4102D4F80001825C3E
:10348000481CD7F80031185C824201D00120D2E7F5
:10349000481CC1B2A942EDDB00261DE04FF0010C33
:1034A0000CEB460CD4F8003113F80C0094F8101112
:1034B000D4F8142190478346584600F0E0F848B10C
:1034C000012000EB4600401CD4F80021115C584656
:1034D00000F0A9F8701CC6B2AE42DFDB0020AAE7FC
:1034E00010B50246032392F80401032801D00120FD
:1034F00010BDD2F800014078D1F800416478A042B4
:1035000007D1D2F800018078D1F80041A478A04218
:1035100001D00120ECE70020EAE7F0B502460B46B7
:10352000022692F80401022801DA0120F0BD92F887
:103530000401401EC4B293F80411481E00EBD07180
:10354000C1F34705AC4201D00120EFE7002111E0B3
:10355000481CD2F80071385C4FF0010C0CEB410CA8
:10356000D3F8007117F80C70B84201D00120DDE7E4
:10357000481CC1B2A142EBDB0020D7E72DE9F041A6
:1035800004460E46D4F80011087800F0F0010F460A
:10359000D4F80011087800F037F80546D6F8001185
:1035A000087800F031F8804694F81101B84222D131
:1035B000A84520D1072D1CD2DFE805F01B040B0520
:1035C0001016110000BF31462046FFF7A6FFBDE8E8
:1035D000F08131462046FFF783FFF8E700BF314610
:1035E0002046FFF71DFFF2E731462046FFF7C8FEF1
:1035F000EDE70120EBE70120E9E7024602F00F00CA
:1036000001F0F00318437047014601F00F007047C6
:1036100001467F2902DC2648405C7047A1F180000A
:10362000244A105CF9E710B57F2805DC204A1154C4
:103630000122214B1A5406E0A0F180021D4B99543F
:1036400001231E4CA35410BD01467F2908DC1A48F3
:10365000405C012811D10020174A505401207047C6
:10366000A1F18000154A105C012806D10022A1F1C9
:103670008000124B1A540120F1E70020EFE70146C9
:10368000002902DD802902DB01DC012070470020D7
:10369000FCE701467F2901DC012070470020FCE7A0
:1036A0000146802901DB012070470020FCE7000073
:1036B0007C0100207D0100207E0100207F01002090
:1036C000704770477047754600F028F8AE46050011
:1036D0006946534620F00700854618B020B5FCF730
:1036E00081FDBDE820404FF000064FF000074FF08D
:1036F00000084FF0000B21F00701AC46ACE8C00910
:10370000ACE8C009ACE8C009ACE8C0098D46704718
:103710000446AFF300802046FCF74FFD0048704799
:10372000A003002001491820ABBEFEE726000200DE
:10373000704700005437000800000020800100009E
:103740002801000890370008800100208008000050
:10375000840100081184A24A0468090102030406D6
:103760000708090C6910051D0204060812441340DD
:103770002612031208120442026C0801400403FFDF
:103780008025F113FD2B1B08FF0413012C420800B8
:04000005080000ED02
:00000001FF
